:020000040800F2
:100000000000012011570008415600084956000819
:1000100051560008595600086156000800000000BB
:100020000000000000000000000000006956000809
:100030007556000800000000815600088D56000823
:1000400061570008615700086157000861570008B0
:1000500061570008615700086157000861570008A0
:100060006157000861570008615700086157000890
:100070006157000861570008615700086157000880
:100080006157000861570008615700086157000870
:100090006157000861570008615700086157000860
:1000A0006157000861570008615700086157000850
:1000B0006157000861570008615700086157000840
:1000C0006157000861570008615700086157000830
:1000D0006157000861570008615700086157000820
:1000E0006157000861570008615700086157000810
:1000F0006157000861570008615700086157000800
:10010000615700080000000000000000615700086F
:1001100061570008615700086157000861570008DF
:1001200061570008615700086157000861570008CF
:10013000615700086157000800000000000000003F
:10014000615700086157000861570008000000006F
:10015000000000000000000000000000000000009F
:10016000615700086157000861570008615700088F
:10017000615700086157000861570008615700087F
:1001800061570008615700080000000000000000EF
:0401900061570008AB
:1001A00010B5054C237833B9044B13B10448AFF3B1
:1001B00000800123237010BDA0000020000000007B
:1001C0000490000808B5034B1BB103490348AFF383
:1001D000008008BD00000000A4000020049000087A
:1001E00010B50400104618BF00291A460AD000288E
:1001F00018BF002A06D021610146204602F033FCD8
:10020000014B636110BD00BFFEAF1C5EFEB5040074
:100210000D4618BF002D16461F460DD0002E18BFE4
:10022000002F09D0A069016888682A6801688A429D
:1002300024BF3B688B4201D20120FEBD3A466FF0DD
:10024000010102F045FAA069D0F81CC0206A0290B2
:100250002246E16901910096DCF80430DCF80040A8
:1002600039462846A047FEBD10B5002818BF002912
:1002700001D1012010BD002444618161C26103628B
:10028000002010BD0246906900684168D36900688B
:1002900002F01CBB024690690068C168D36980689F
:1002A00002F014BBC16902F098BB70B505460E465A
:1002B000E869142202F0E7FB040049D1316800200C
:1002C0000861AA6910680368E8691A6803F07EFF8C
:1002D000040038D1A869016830680A68126800F122
:1002E0000801E86903F072FF040028D1A869426898
:1002F000D3693168032B30D000680268E86912685E
:10030000091D03F063FF040013D1A8694268D36993
:100310003168022B1ED100680268E86912680C314E
:1003200003F054FF040013D03068011DE86903F0A6
:1003300058FF306800F10801E86903F052FF3168A6
:10034000E86903F04EFFE8691422314602F0BAFB77
:10035000204670BD0020C860FAE700224A60CA60EB
:10036000F6E770B50C4600250646002C1ABF20683B
:100370000028012523D0B1694A68D369022B04D132
:1003800000F10C01F06903F02CFFB0694168C86905
:10039000032804D02168F069091D03F022FF2068BA
:1003A00000F10801F06903F01CFF2168F06903F017
:1003B00018FFF0691422214602F084FB25602846CC
:1003C00070BD0000F8B50F4600251646002F18BF77
:1003D000002E04460BD0396800291CBFB8680028DD
:1003E00005D03268002A1CBFB068002801D1012561
:1003F00019E03B693361204603F02EFF796800293C
:100400001FBF7268002A204603F026FFB268B96851
:10041000204603F021FFF96800291FBFF268002A77
:10042000204603F019FF2846F2BD70B50E4615466A
:10043000B1690A68D369044601203BB1022B01D09F
:1004400007D370BD4968CB69032B14D01268696863
:100450000CE012682968204602F00AFAB1694A687D
:10046000D369022B07D10868E96802682046BDE815
:10047000704002F0FDB970BD70B50D4606462869A2
:1004800040F0010028610024B1690868C2691AB10E
:10049000022A0BD01AD32FE02868002103F0CDFEEA
:1004A0006868012103F0C9FEA86821E04968CA69AB
:1004B0002868032A08BF012104D0002103F0BDFEF3
:1004C0006868012103F0B9FEA86811E028680021DE
:1004D00003F0B3FE6868012103F0AFFEA8680121B4
:1004E00003F0ABFEB0694168C869022805D1E8682D
:1004F000002103F0A2FE00E00124204670BD2DE99A
:10050000FC4B16460025002E1CBF0B9F002F80467B
:100510008B461C4605D0396800291CBFB8680028E6
:1005200003D101252846BDE8F68B0A98386140467C
:100530004A68316802F069FA3A685060786838B100
:10054000426856F82B10404602F05FFA796848601E
:10055000002CB86842680CBF01212168404602F0B7
:1005600054FAB9684860F86838B1426856F83B10E8
:10057000404602F04AFAF96848604FF00209361F17
:1005800015E0404602F041FAB96841F82900F868E0
:1005900058B150F8292009EB4B0056F8201040467E
:1005A00002F033FAF96841F8290009F10109CB4555
:1005B000B8D3386850F8292056F82910404602F080
:1005C00024FA396841F82900786858B150F8292090
:1005D0000BEB090056F82010404602F016FA796835
:1005E00041F82900002CB86850F829200EBF0021DE
:1005F000201F50F82910C4E770B504460D46A069C5
:100600004168C8690026032818D8DFE800F007070A
:10061000020C226AE868214602F071F9226A6868D1
:10062000214602F06CF9226A2868214602F067F937
:10063000226AA868214602F062F900E001262869D2
:1006400040F004002861304670BD000038B5044613
:100650000D46A0694168C86903281FD8DFE800F08B
:1006600009090210236AE269E868214602F04FF99D
:10067000A8B9236AE2696868214602F048F970B9AE
:10068000236AE2692868214602F041F938B9236AF1
:10069000E269A868214602F03AF900E001202969E0
:1006A00021F00401296132BDF8B5044600260D464B
:1006B000002C18BF002D5ED0287C002100F0010026
:1006C00002F0ABF9012856D0A868002103F042FEE1
:1006D000012850D0A06901682868096803F0F9FD75
:1006E000002848D5A0694168CA69032A06D0006875
:1006F0000168686803F0EDFD00283CD5A169096830
:10070000086900281CBF4869002835D0C86918B19D
:10071000022831D032D32EE060690168236A28684C
:10072000224602F039F9A069616900680B68026825
:100730000169184601F088FE6069216A026800912B
:1007400023462968104602F004F9A069626901682D
:1007500010680A684969034601F076FE60694168DD
:10076000236A6868224602F017F9606941680068E8
:1007700003F0AFFD00B104263046F2BD60690168A8
:10078000236A2868224602F007F960694168236AF3
:100790006868224602F000F96069226A01680092E6
:1007A0002346A069076838690A4602F0D2F8A269B0
:1007B0006169176808683A684968034601F044FEB1
:1007C0006069216A4068009123462968024602F068
:1007D000C0F86069216A4068009123462968024692
:1007E00002F0B7F86069216A406800912346A76962
:1007F0003F687969024602F0ACF8A16960690A684D
:1008000040681268A968034601F01EFEADE70000CB
:10081000F0B585B00F46064600210391049103A967
:10082000B06903681C68F069226803F0CFFC0125F9
:10083000040040F0C580B06901680A68F069126878
:1008400004A903F0C3FC040040F0B680387C00210A
:1008500000F0040002F0E1F820B939463046FFF715
:10086000CBFE0025DFF878215749D2E90034CDE9E5
:1008700000340878554B00280EBF002104200421C5
:100880001A585DF801005249821811600121106860
:1008900091605A680099504041404E481A6880EA79
:1008A000010C01994C484A404240B06903681868FD
:1008B00094444A4A92EA0C0F049A14BF6FF0020162
:1008C0006FF0010101F004FFB069C469306A029061
:1008D0003246F16903980191009063680499B86801
:1008E0002468A0470446B0694168C869032849D80C
:1008F000DFE800F0021E283F336A0499039832466D
:1009000002F04AF83A68306A04990090334610467B
:1009100002F01FF8306A049A00903346039811469B
:1009200002F017F87868316A00913346049925E09F
:100930003868316A009133460399024602F009F89B
:10094000786817E03868316A0091334603990246A7
:1009500001F0FFFF7868316A00913346039902463F
:1009600001F0F7FF306A0090FA687968386833461A
:1009700005E03868316A009133460399024601F078
:10098000E8FF00E00124B868316A0091334603991A
:10099000024601F0DEFF002D08BF002C04D13946CD
:1009A0003046FFF753FE0446386940F002003861D4
:1009B00004A9F06903F015FCF06903A903F011FC28
:1009C000204605B0F0BD00BFBC000020A494000884
:1009D0002C7E82AD04850012FC68017AA8E29B8E11
:1009E000A41F00082DE9F047064688B0B069894683
:1009F0001D46016A0068D1F808800368F0699246D4
:100A000009EB0A0206A912F8017C1A6803F0DEFB62
:100A1000FF09040040F04181B06901680A68F0698B
:100A2000126807A903F0D2FB040040F03281B069DC
:100A300001680A68F069126803A903F0C7FB0400A3
:100A400040F02381B06901680A68F069126805A95D
:100A500003F0BCFB040040F01481B06901680A682F
:100A6000F069126804A903F0B1FB040040F00581AD
:100A7000039A5146484603F04EFD039803990068D7
:100A800051F8202022F0004241F82020B06901688E
:100A90000398096803F01DFC002804D4F06904A938
:100AA00003F09FFBC3E06868002103F0C6FB6A689F
:100AB0000399012003F0D0FB326A0398314601F01C
:100AC0001EFF336A05990398324601F065FFB0694D
:100AD0000168C0680A681268011D049803F08CFB65
:100AE000B06901680A68079B0499059801F03DFD0B
:100AF000306A069A00903346B069016805984969E2
:100B000001F027FFB06901680A68069B049918463E
:100B100001F09AFC336A03990698324601F03CFFD3
:100B2000306A039A069900903346104601F011FF8F
:100B3000306A059A039900903346079801F009FF3F
:100B40000399336A3246084601F026FF306A039A59
:100B5000069900903346104601F0FBFE306A039A76
:100B6000079900903346104601F0F3FEB069036820
:100B7000049A18686FF0040101F0AAFD049A032199
:100B8000104601F036FCB069C469306A0290F16920
:100B9000039801912A680499009232466368246898
:100BA000A0470446F06904A903F01BFB002C64D1A4
:100BB0002868316A009133460599024601F0C9FE62
:100BC000336A03992868324601F0E6FE306A039AD8
:100BD000009033460698114601F0BBFE0799039832
:100BE00003F077FB98B1B0690368059A0799186814
:100BF00001F03AFD0599039803F06BFBB8B928683A
:100C0000316A009133460246414601F0A2FE336A42
:100C1000F2692868314601F07AFE04002DD1012FD7
:100C200007D12868002103F095FB012801D1042495
:100C300023E0B069296802680879126800F00100B1
:100C4000784001F015FE286940F00200286101217A
:100C5000A86803F0F2FAB0694168C86902280CD1AB
:100C6000306A0090EA6869682868334601F071FECE
:100C7000326AE868314601F042FEF06905A903F0E6
:100C8000B0FAF06903A903F0ACFAF06907A903F020
:100C9000A8FAF06906A903F0A4FA204608B0BDE856
:100CA000F0872DE9F0431F4605468846914608EB3C
:100CB000090087B010F8016CA86903681C68E8692E
:100CC000226805A903F082FAF609040040F01381B6
:100CD000A86901680A68E869126806A903F076FA4B
:100CE000040040F00481A86901680A68E869126894
:100CF00003A903F06BFA040040F0F580A8690168CD
:100D00000A68E869126804A903F060FA040040F078
:100D1000E6807A68A9F10101404603F0FCFBA8696E
:100D200001687868096803F0D4FA002840F1BF80B0
:100D30000398002103F081FA039A7968012003F0F7
:100D40008BFA2A6A0398294601F0D9FD2B6A049987
:100D500003982A4601F020FEA8690168C0680A6865
:100D60001268011D386803F047FAA86901680A682B
:100D7000069B3968049801F0F8FB286A059A0090F0
:100D80002B46A86901680498496901F0E2FDA86949
:100D900001680A68059B3968184601F0E6FB2B6A72
:100DA000039906982A4601F0F7FD03992B6A2A4613
:100DB000084601F0F1FD286A039A069900902B4637
:100DC000104601F0C6FD2B6A049905982A4601F0E9
:100DD000E3FD286A049A00902B460598114601F01D
:100DE000B8FD286A039A049900902B46104601F03A
:100DF000B0FDA8690368049A18686FF0020101F059
:100E000067FC049A0221104601F0F3FAA869C4694C
:100E1000286A0290E969039801913A68049900925E
:100E20002A4663682468A047040054D1286A039ABC
:100E3000059900902B46069801F08BFD2B6A0499CA
:100E400006982A4601F0A8FD286A039A04990090A2
:100E50002B46104601F07DFD3868296A00912B462B
:100E60000399024601F075FD2B6A039938682A46FA
:100E700001F092FD286A039A00902B4605981146CE
:100E800001F067FD0699039803F023FA78B92B6AFD
:100E9000EA693868294601F03AFD04001BD1012EA9
:100EA00007D13868002103F055FA012801D1042444
:100EB00011E0A869396802680879126800F0010039
:100EC000704001F0D5FCB868012103F0B6F938692B
:100ED00040F00200386104A9E86903F082F9E8698A
:100EE00003A903F07EF9E86906A903F07AF9E86935
:100EF00005A903F076F9204607B0BDE8F08370B588
:100F000006460C46B069016808681546026850F844
:100F1000220001F08EFDB1690B689E696268761E41
:100F20004FF0FF314E40324062600126C0F1200296
:100F3000D140226854F822300B4044F82230401E41
:100F4000226854F822308640334344F8223028681F
:100F5000026850F82230194040F8221070BD2DE987
:100F6000F44F05461F460E4684B06869D0F80080ED
:100F7000D0F80490D0F808A0C0680E9C0190D7F873
:100F800000B0796803912A46B868029041462B6AFE
:100F9000B06801F001FD286A00902B46B0684A460F
:100FA000414601F0D6FC286A049900902B46096856
:100FB0004246404601F0CDFC286A049900902B4639
:100FC00049684A46484601F0C4FCA86901680A68B5
:100FD00031684346404601F0C8FAA86901680A68CA
:100FE00071684B46484601F0C0FAECB1002140461A
:100FF00003F0B0F9206049463A6803F065F983468A
:101000007A682068494603F05FF903904946BA6858
:10101000206803F059F902900021484603F09AF93C
:10102000216841EA400121602B46286A029A00901B
:101030004146B06801F08DFC2B6A2A465146404675
:1010400001F0AAFC286A019A00902B4651464046BE
:1010500001F07FFC286A00902B46306852465146CA
:1010600001F077FCA86901680A684346514650467A
:1010700001F0EAF92B6A2A465946484601F08CFCF1
:10108000A86901680A685B464146584601F06DFA56
:10109000A86901680A6801995B46584601F065FA3B
:1010A000A86901680A6853465946504601F05DFA3E
:1010B000286A00902B4652465146484601F049FCAA
:1010C000286A019A00902B467168104601F041FC95
:1010D000A86901680A68039B0199504605B0BDE8FC
:1010E000F04F01F042BA2DE9F84F04461E46606900
:1010F000D0F804A0D0F80880D0F80CB0D0F8009058
:10110000236A0D461746A8682246494601F044FC6A
:10111000206A0090234638685246494601F019FC7F
:10112000206A00902346A8684A46494601F011FC0F
:10113000206A0090234678684A46494601F009FC37
:10114000236AB8682246414601F026FC206A0090D6
:10115000234628685A46414601F0FBFB206A00906E
:101160002346B8684246414601F0F3FB206A0090EE
:10117000234668684246414601F0EBFBA0690168DE
:101180000A6853465946504601F0EFF9A0690168D4
:101190000A684B464146484601F0E7F9206A00904C
:1011A00023463268B868514601F0D3FB206A0090AC
:1011B000B2683168A868234601F0CBFB236A316826
:1011C0002246504601F0E8FB206A009072683168C0
:1011D0002346504601F0BDFB206A0090234631684B
:1011E0005246584601F0B5FB236A3168224648460C
:1011F00001F0D2FBA1690A68306812687168034681
:1012000001F0B3F97168206A009023460A4640460F
:1012100001F09FFBA069016809684246504601F051
:10122000C8FAA1690A68306812680346414601F0AD
:101230009CF9A06901680A6831685346504601F07C
:1012400094F9206A009023464A465146484601F0E8
:1012500080FBA069026812687168484601B0BDE869
:10126000F04F0B4601F081B92DE9FE4F04460D46C3
:1012700060690768D0F80490816801911646D0F83B
:101280000CA0316898463A46404603F01DF8834664
:1012900071683A46404603F017F802903A46B16842
:1012A000404603F011F80646236AA86822463946EC
:1012B00001F072FBA06901680A6828684B4639464C
:1012C00001F0C2F8A06901680A6828683B463946FF
:1012D00001F04BF9206A009023463A4649463846C9
:1012E00001F037FBA069016809684A46384601F0F9
:1012F0000EFAA06901680A683B464946384601F083
:10130000A3F8236A68682246494601F045FB206A33
:10131000019A009023462868494601F01AFB236A87
:1013200022465146384601F037FBA06901680A6839
:1013300001995346504601F018F9A06901680A68FE
:1013400001995B46504601F010F9206A009023464F
:10135000A9686868324601F0FCFA236A22464946C9
:10136000484601F019FBA06901680A6801985346D4
:10137000594601F0FAF8206A009023463A46514651
:10138000384601F0E6FAA0690168029B0A684946FE
:10139000384603B0BDE8F04F01F0E7B82DE9FE4F45
:1013A00004460D4660690768D0F80480D0F80890BC
:1013B000C06801901646029831683A4602F084FFF0
:1013C0008246716802983A4602F07EFF8346B16811
:1013D00002983A4602F078FF0646A06901680A685A
:1013E000A96868683B4601F02FF8236A28682246FE
:1013F000414601F0D1FA236A68682246494601F065
:10140000CBFAA06901680A6828685346494601F08A
:101410001BF8236A0199A868224601F0BDFA236AE5
:1014200022465146504601F0B7FAA06901680A68A1
:1014300053464146504601F098F8A0690168096892
:101440005A46404601F0B5F9A06901680A6843466A
:101450005946404600F0F8FF236A2246594648465E
:1014600001F09AFA236A22463946384601F094FA86
:10147000A06901680A683B464946384601F075F89C
:10148000A06901680A6801993346384601F06DF891
:101490000199236A2246084601F07EFA206A019AE1
:1014A00000902346A06905682869114601F051FAA9
:1014B000A06901680A6801993B46404600F0C4FFF4
:1014C000A06901680A6843465946504601F04DF844
:1014D000A069016809684246404601F06AF9236A3A
:1014E00022464946384601F057FAA0690168019A38
:1014F0000968404601F05DF9A06901680A68019930
:101500005346484601F031F8A06901680A6843462D
:101510005146404601F029F8A069016809684A4629
:10152000584601F046F9A069016809684A464846EC
:1015300001F03FF9A069016809684A46484601F090
:1015400038F9206A009023463A464146384601F071
:1015500000FAA06901680A685B464946384603B04C
:10156000BDE8F04F01F001B82DE9FC47044665697C
:101570000A98D5F80080D5F80490D5F808A008B1ED
:10158000002505601646226A00920F461D46316806
:1015900038682346424601F0DCF9A06901680A6810
:1015A000796838684B4600F04FFFA06901680A6807
:1015B0002B687168306800F047FF206A00906A6805
:1015C00071687868234601F0C4F9206A00902346C8
:1015D00069685246404601F0BCF9206A00902346F3
:1015E000A069066870695246514601F0B2F9206A56
:1015F0000090234629684A46484601F0AAF9A069A6
:1016000001680A684B464146484600F0AEFFA069B3
:1016100001680A6869684B46484600F0A6FF206AE0
:1016200000902346A069066830694246414601F0B1
:1016300090F9A1690A68686812680346414600F09B
:1016400094FF236A2968B868224601F0A5F9A069C9
:1016500001680A6828684346514600F086FFA06981
:1016600001680A6828685346514600F0EDFE206A7A
:10167000009023464A464946404601F06AF9206AEE
:10168000009023462A68B868494601F062F9206A4A
:101690000090234669684A46504601F05AF9206A8C
:1016A000009023466A68B868494601F052F9206AFA
:1016B00000902346AA685146404601F04AF9BDE829
:1016C000F3872DE9FC4704460D466069D0F800A079
:1016D000D0F80480D0F80890206A009017461E4683
:1016E000B968A8682346524601F033F9206A009091
:1016F000B26839682868234601F02BF9A0690168AF
:101700000A6869682868434600F09EFEA06901687F
:101710000A6833687968386800F096FE206A00909D
:10172000726879686868234601F013F9206A0090AE
:1017300023467168B0684A4601F00BF9206A0090B0
:101740002346A069056868694A46494601F001F9DF
:10175000206A0090234631684246404601F0F9F87D
:10176000A06901680A68B1684346404600F0FDFE82
:10177000A06901680A6871684346404600F0F5FEBA
:10178000B168206A00902346A069056828690A4666
:1017900001F0DFF8A1690A6870681268B168034651
:1017A00000F0E3FE236A31682246504601F0F4F867
:1017B000A06901680A68B3683068494600F0D5FE40
:1017C000A06901680A6830684B46494600F03CFE53
:1017D000206A00902346B0684246414601F0B9F8BD
:1017E000206A0090234632684146504601F0B1F825
:1017F000206A0090234671684246484601F0A9F8E5
:10180000206A0090234672684146504601F0A1F8D4
:10181000B068216A009123460246494601F099F8D2
:10182000BDE8F3872DE9F84F04460D466069066868
:10183000D0F804A017469B4639683246584602F055
:1018400043FD804679683246584602F03DFD8146A8
:10185000B9683246584602F037FD0746A06901686C
:101860000A6869682868334600F0EEFD236A286834
:101870002246514601F090F8206A00902346A06964
:10188000D0F800E0DEF810004246514601F061F861
:10189000236A22463146304601F07EF8A06901688D
:1018A0000A6833465146304600F05FFE236A686896
:1018B0002246494601F070F8A06901680A6853465B
:1018C0004946404600F0C0FDA06901680A684346E9
:1018D0004946404600F049FEA06901680A6833465F
:1018E0004946304600F041FE236AA8682246394640
:1018F00001F052F8A069016809683A46384600F0DC
:1019000058FF206A009023464A464146504601F05F
:1019100020F8A06901680A683B463946504600F045
:1019200024FE206A0090234642463946304601F0A4
:1019300010F8206A009023463A463946504601F096
:1019400008F8BDE8F18F2DE9F8430D4604466169BA
:101950000898D1F80080D1F8049017461E4608B1C7
:10196000002101604346A069006802682968686830
:1019700000F0FBFDA06901680A68396878684B4689
:1019800000F062FD206A00902346424649464046E8
:1019900000F0DFFFA06901680A68296868684B46A3
:1019A00000F052FDA06901680A68336839687868F8
:1019B00000F0DBFD206A0090234631684A46484625
:1019C00000F0C7FFA06901680A68336841464846CD
:1019D00000F0CBFDA06901680A684B4641464846C5
:1019E00000F032FDA069016872680968F86800F0CB
:1019F000E0FE7168206A00902346A8680A4600F05D
:101A0000A8FFA0690168F2680968E86800F0D1FEE3
:101A1000A06901680A687168F068434600F014FD27
:101A2000A1690A68F06812687168034600F09DFDBC
:101A3000206A00902346B2683068494600F089FF6A
:101A40003168206A009023460A46404600F081FF34
:101A5000206A00907268F1682346484600F079FFDA
:101A6000F168206A009023460A46404600F071FF64
:101A7000BDE8F1832DE9F843044617466069D0F8C4
:101A80000490D0F80080A069006802680D461E46E8
:101A900029686868434600F068FDA06901680A6823
:101AA000396878684B4600F0CFFC206A00902346E6
:101AB00042464946404600F04CFFA06901680A686A
:101AC000296868684B4600F0BFFCA06901680A6895
:101AD00033683968786800F048FD206A0090234632
:101AE00031684A46484600F034FFA06901680A6838
:101AF00033684146484600F038FDA06901680A682D
:101B00004B464146484600F09FFCA0690168726858
:101B10000968F86800F04DFE7168206A009023465D
:101B2000A8680A4600F015FFA0690168B268096854
:101B3000B86800F03EFE206A0090F268B168E8687C
:101B4000234600F006FFA06901680A687168F06822
:101B5000434600F079FCA1690A68F0681268716870
:101B6000034600F002FD206A00902346B268306808
:101B7000494600F0EEFE3168206A009023460A468E
:101B8000404600F0E6FE206A00907268F168234645
:101B9000484600F0DEFEF168206A009023460A46BF
:101BA000404600F0D6FEBDE8F1832DE9FE4F044625
:101BB000984660690768436801930D4616463A46A1
:101BC0003168404602F080FB814671683A464046E3
:101BD00002F07AFB8246B1683A46404602F074FB56
:101BE0008346F1683A46404602F06EFB0646236A99
:101BF00028682246394600F0CFFE236A68682246EC
:101C0000314600F0C9FE236AA8682246594600F012
:101C1000C3FEA069016809685A46584600F0C9FD2C
:101C2000A06901680A68696828684B4600F00CFCE6
:101C3000236A22464946484600F0AEFEA069016884
:101C40000A684B463946484600F08FFCA069036895
:101C500018685246394600F007FDA06901680A6815
:101C60003B463146484600F080FCA06901680A689E
:101C7000019B3146504600F0E7FBA06901680A6805
:101C800033463146504600F070FCA06901680A688E
:101C900001985346594600F068FC206A019900906B
:101CA00023465A46504600F054FE206A00902346D0
:101CB0004A465146384600F04CFE206A00902346C2
:101CC00001985246314600F044FE206A00902346B7
:101CD00032463146384600F03CFEBDE8F78F2DE92C
:101CE000F843044616466069D0F80490D0F80080A6
:101CF000A069006802680D461F46B9683868434607
:101D000000F0A2FBA06901680A68B96838684B4610
:101D100000F02BFCA06901680A683B68B168306874
:101D200000F092FBA06901680A68BB68B16830687E
:101D300000F01BFCB868216A009123460246414628
:101D400000F007FE236A22464146404600F024FE8A
:101D50003868216A009123460246494600F0F9FDA1
:101D6000236A22464946484600F016FEA0690168EB
:101D70000A6833683968B86800F066FBA1690A68C8
:101D8000B86812683968034600F0EFFB3068236AD0
:101D90002246014600F000FEB868236A224601464A
:101DA00000F0FAFD206A0090B268B96828682346FE
:101DB00000F0CFFD206A009023463A68494640462D
:101DC00000F0C7FDA06901680A684B4649464046D5
:101DD00000F0CBFB206A00902346A0690168BA6836
:101DE0000969484600F0B5FDA06901680A68B9684C
:101DF0004346404600F028FB206A00902346BA681C
:101E00004946404600F0A5FDBDE8F183FEB5064613
:101E10000C460020174601901D4622692A610021C8
:101E2000207C00F0010000F0F8FD012807D1387C8B
:101E3000002100F0010000F0F0FD012836D0207CE8
:101E4000002100F0010000F0E8FD012802D12A463F
:101E5000394609E0387C002100F0010000F0DDFD8A
:101E6000012804D12A462146FEF7ACFAF7BD3A46CE
:101E700001A800902B46B769D7F804C0DCF80470BD
:101E800021463046B8470198C10713D5C0F340003A
:101E900060B13046B6697768D7F800C001232A469A
:101EA0002146E04720694008400002E0286940F0F0
:101EB00001002861F7BDF8B50F4606461D46386992
:101EC00028611446387C002100F0010000F0A5FDD7
:101ED000012807D1207C002100F0010000F09DFDC9
:101EE00001283BD0387C002100F0010000F095FD76
:101EF000012802D12A46214609E0207C002100F079
:101F0000010000F08AFD012805D12A463946BDE8C6
:101F1000F840FEF757BA3946B769D7F804C0DCF87D
:101F200008702B4622463046B847A868002102F0C8
:101F300011FA012816D12868002102F00BFA0128B5
:101F40000CD13046B6697768D7F800C001232A461D
:101F50002146E04720694008400002E0286940F03F
:101F600001002861F1BDF8B50E46054614463069FA
:101F700020610021307C00F0010000F04EFD0128BE
:101F800003D1206940F001000AE02846AD693146DE
:101F90006E68376801232246B84720694008400030
:101FA0002061F1BD04B00101001701452DE9F84F92
:101FB00092B000240D460594049408940794069466
:101FC000A5B316001FBF1C9F002FDDF87880B8F165
:101FD000000F2BD0040029D06069A449884225D184
:101FE0002069C169686A014208BFA14E1FD095F8F7
:101FF0002800C10758BF9F4E7AD50093296888688A
:1020000002F0BEF9814609F107004FEAD00A2868BC
:10201000006802F0B5F9C01D4FEAD00B0098B0EB94
:102020004B0F04BF1F98B0EB4A0F01D0924E5FE0F8
:1020300023692246294609A8FEF716F90F988F4D05
:1020400001688A68126805A9204602F0BFF808B145
:102050002E464DE00F9801688A68126804A9204650
:1020600002F0B4F808B12E463EE00F9801688A6885
:10207000126808A9204602F0A9F8002840F08880DC
:10208000059A514608EB0A0002F002FA0598002171
:1020900002F060F9012807D00F9801680598896857
:1020A00002F017F9002801D4754E15E009A8FEF7D3
:1020B000F1F808B12E460FE0119A059809A900F031
:1020C0001EFC049B089A059909A8FEF79FF898B191
:1020D0002E4609A8FEF7E6F808A9204602F081F886
:1020E00004A9204602F07DF805A9204602F079F8FF
:1020F000304613B0BDE8F08F1D99049AB9EBC10FBB
:102100000BD25146384602F0C3F9049AC9EBCA090A
:102110004946104600F06DF902E0384602F0B8F981
:102120000F980168049B89680A46184600F01DFA5A
:102130001198049A0899009009AB104600F009FC28
:10214000059A5146404602F0A3F90598002102F095
:1021500001F9012807D00F9801680598896802F0F5
:10216000B8F8002801D4464EB3E71198059A0899AB
:10217000009009AB104600F0ECFB09A8FEF792F8BE
:1021800008A9204602F02DF809A8FEF77BF808B14F
:102190002E46A5E707A909A8FEF787F808B12E463D
:1021A0005FE006A909A8FEF780F808B12E4654E0C2
:1021B000069802685946304602F06AF90698426865
:1021C000594606EB0B0002F063F90698806801217E
:1021D00002F033F80698016941F00201016109A893
:1021E0000F9E0799049B069A009177690599D7F885
:1021F00000C0E04718B1042810D1224E29E007980A
:10220000214E007C002100F0010000F006FC0128B6
:102210001FD0079909A8FEF7FBFA08B12E4618E06F
:102220000F98016807988968049B00680A4600F0C7
:102230009CF92098154A164913680390009302965A
:102240000191514604980368021D404601F046FF83
:10225000064606A909A8FEF784F807A909A8FEF70B
:1022600080F809A8FEF71EF83AE700BFFEAF1C5E33
:102270000E0006000F000600030006000C0006001A
:102280000900060008000600936E0600109600087C
:1022900026C7060038B50C46114600281A461CBF52
:1022A0000568002D074B0AD04AB104B939B9049822
:1022B00028B1059B009303462046A84703461846CD
:1022C00032BD00BF030002002DE9F04104460E4676
:1022D000216817464A681D4690478046B8F5003F7A
:1022E00019D1226806999368204698478046B8F528
:1022F000003F10D123683146DE683A462046B04799
:102300008046B8F5003F06D12368079A29461D6923
:102310002046A847804621680A68204690474046E4
:10232000BDE8F08138B500281CBF01680029184AB3
:1023300023D1184B1C684FF6F0710C404CF240252D
:10234000AC421FBF1B6819404CF27024A14212D14D
:10235000114D296879B911490B68C3F30B03B3F523
:102360008A6F1FBF0968C1F30B0140F28343994292
:1023700004BF0121117028B905E0094B994204BF3F
:10238000012111704068BDE8324002F089BC00BFF5
:10239000BC00002000ED00E0002004E00010005C24
:1023A0000000374810B5002204E050F8224043F8FE
:1023B0002240521C8A42F8D310BDF0B503460E46A7
:1023C00001274FF0030C02241F22002507FB03F016
:1023D0000CEA00000021001BA94124EA0101CF19E9
:1023E00064004FEA4C00521E80F0010CEED13760C1
:1023F000F0BDF0B50023202928BF012322D21468A4
:102400000568AC4238BF03231CD301240AE000EB6B
:102410008407C1F1200E7F6807FA0EF73E4342F8A9
:1024200024602C4650F824600768CE40651CBC42EE
:10243000EDD342F8246002E042F825306D1C1068AC
:10244000A842F9D21846F0BD2DE9FF4E8246002081
:10245000CDE9020017469C460E463A68DCF800308B
:102460000021934221BFDAF800B0934535689542C8
:1024700001D2032076E0AB4503D3CDF804A000954C
:1024800003E0CDF800B00196AB465B4538BF9B46F4
:102490004FF0010E002515E05AF82E2056F82E4078
:1024A000801841EB0509021949EB050357F82E0086
:1024B0000021101A4CF82E0063EB01010846C917E1
:1024C0000EF1010E3A687245E6D2009C74451CD3A9
:1024D0005AF82E2056F82E400023002514195D418D
:1024E00000194CF82E0069410846C9170EF1010E7B
:1024F000EBE7019C54F82E20002380184CF82E00A6
:1025000059410846C9170EF1010EF345F1D286462E
:10251000DDE9020166464FF0010C002510E057F896
:102520002C2056F82C4002EA0E020023A2186B4120
:10253000801846F82C005941084600210CF1010C86
:102540003A686245EBD2346864450AD356F82C20C9
:10255000801846F82C006941084600210CF1010C56
:10256000F1E7002004B0BDE8F08E2DE9F44F84B00F
:102570008E460021CDE90211049A1C681568834635
:10258000AC4238BF03206CD3DEF80050DBF800907B
:10259000A94506D3CDF80090CDF804B0A9468C46E5
:1025A00004E0CDF804E000954FF0FF3C009DAC4204
:1025B00038BF009498464FF0010A002200230025FE
:1025C0000FE05BF82A005EF82A40161843EB01077B
:1025D000321B48F82A2067EB05031A46DB170AF17D
:1025E000010AD145EDD20098504511D3019E56F80D
:1025F0002A0020EA0C0412196B4100EA0C00121A9E
:1026000048F82A208B411A46DB170AF1010AEAE74B
:10261000DDE90201DDF810C0164601270EE05CF886
:10262000272058F8274032400023A2186B41801819
:1026300048F827005941084600217F1CDCF800209B
:10264000BA42ECD2D8F80040BC4209D358F827204F
:10265000801848F827006941084600217F1CF1E7EF
:10266000002005B0BDE8F08FF0B5136806680024BF
:102670000025B34201D20320F0BD8E464FF0010C7D
:102680000646174600210FE056F82C205EF82C0075
:102690000023A2186B41141A47F82C4063EB010584
:1026A0002C46ED170CF1010CDEF800006045EBD272
:1026B000326862450AD356F82C00241847F82C409B
:1026C0004D412C46ED170CF1010CF1E70020F0BD57
:1026D000F0B5044615466668002772186A6047EB35
:1026E000E1731A46DB17022608E054F82600121898
:1026F00045F826207B411A46DB17761C2068B0423D
:10270000F3D21046524222EA0000C00FF0BD2DE97C
:10271000F045154642688E4602F001060168DEF873
:1027200000307642994202D12C688C4201D20120BD
:102730003DE0DEF80470002337400024D2196341E5
:1027400004466A6000214FF00208184618E0074668
:102750005EF8280054F82820002330401018594112
:10276000381845F82800594155F828305CF8042CF1
:10277000DB07084643EA520300214CF8043CD046EC
:102780002268424505EB880C08F1010ADFD25CF8AB
:10279000043CC00740EA53004CF8040C03E045F841
:1027A0002A100AF1010A28685045F8D20020BDE835
:1027B000F0852DE9F047904602680B689A4203D1F4
:1027C000D8F80040944201D201204FE044684A68A2
:1027D000640000234FF00009A21A69EB03031546B9
:1027E0001A46DB17022784468E4618E00CEB870456
:1027F00054F8040C5CF827105EF82740C00F40EA3C
:102800004100161808EB870043EB090A40F8045C06
:10281000321B6AEB090315461A46DB177F1CDCF8EE
:102820000000B842E2D246466446C84654F820103A
:1028300046F8205002EBD17300254FF0010C11E057
:102840005EF82C0056F82C2018400021101849EB97
:10285000010118EB00004D4146F82C00A846ED1789
:102860000CF1010C20686045EAD20020BDE8F08739
:102870002DE9F84300240025002918BF002A03D0C1
:102880000B681668B34201D201201DE00127814682
:102890000E46904613E058F8270056F827200021EE
:1028A000201869410023841A61EB0305214648463C
:1028B00000F0ABF846F827002C46ED177F1CD8F83F
:1028C0000000B842E7D20020BDE8F283F8B5174611
:1028D00005460E462A681846520007F1080101F025
:1028E00075FC040009D17E603D6007F10C01686849
:1028F000FFF763FDF8684042F8602046F2BD80B5FE
:102900000B4600920246596800F023F802BD2DE9FB
:10291000FC411F4605460023904601930E462A6857
:1029200001A9404601F052FC04000FD10198012199
:1029300001F083FC0097334601992A46284600F0AF
:1029400008F8044601A9404601F04BFC2046BDE8CA
:10295000F681FEB51D4614462A6823681668B34200
:1029600001D20320FEBDEB68089F0193121D009267
:10297000091DAA68D7F800C0131D3246001DE047A4
:10298000E8680090231D2968A8687C680A1D314604
:10299000001DA0470020FEBDF8B515460C4629686D
:1029A00022680E68B2421F4601D20320F2BDEA68D7
:1029B00000920B1DA968D7F808C00A1D3146001DFA
:1029C000E047E8680090231D2968A868FC680A1D94
:1029D0003146001DA0470020F2BD0A4600210160DB
:1029E000C160816821B100F10801104601F0F9BB16
:1029F000704710B582B000931346049C01940A46B8
:102A0000014601F0D4FD02B010BD404251400840E3
:102A10005040704780F001007047484041420843F1
:102A2000C00F70470A1A4140504008405040C00F44
:102A3000704710B50146202001221F2321FA03F41C
:102A400004F0010484F001042240801A5B1E13F19B
:102A5000010FF3D110BD0146484201EAE07200EADD
:102A6000E170104370470023002918BF002A04D0EA
:102A70000160426000218360C16070470146486880
:102A80008968401A704720B511B11AB90020086052
:102A9000012020BD83684568D21C920803EB8202A6
:102AA000954203D200200860022020BD05682B4417
:102AB0000B6082601146C268914238BF1146C16006
:102AC000002020BD10B50446002000291CBF0B6863
:102AD000002B03D012B1A368934201D2012010BD94
:102AE000D21C92080860A3EB8202A26010BD000015
:102AF00004B00101001701450000000000000000C3
:102B00002DE9F24F8AB0834601208DF80800002499
:102B10000A98DDF85490012617460025079501957F
:102B2000AA460168012988BFDEB20121701E8140DA
:102B3000890009910A4601A94846FFF7A4FF002829
:102B4000049040F0EF80A8460CE0386801990268D4
:102B500001EB8801484601F039FB0028049075D14B
:102B600008F101080120721E904080450690ECD3C8
:102B70000198CDF80CB00021006801F05EFB1498BC
:102B8000002101F05AFB019802680399012001F02D
:102B900063FBDDF858B00097002707E00198006854
:102BA000009A5B460146FFF7F7FE7F1C701E8742C6
:102BB000F4D3009905965846731E01278DF8093005
:102BC0008B4606460CE000965B460198039950F848
:102BD000272000EB870C7F1C5CF8040CFFF7B9FE84
:102BE00006988742EFD316960A98016814980691C2
:102BF000002101F022FB149A0399012001F02CFB23
:102C00000120089015E00A98069950F821000699CD
:102C1000491E2022079006918DF8082007980799F1
:102C2000C00F49002A0007913BD1002801D043D0B2
:102C300001259DF80800411E8DF808109DF8080038
:102C40000028EBD106980028DDD1022D1CD1E0B27E
:102C5000D0B1E5B2149C169E059F33465A462146D4
:102C60002046FFF799FE08994FEA4A0AB9405FFAF1
:102C70008AF0084206D000965B4603992246204619
:102C8000FFF767FE6D1EE8D1B8F1000F45D001983F
:102C900000EB8801091F484601F0A3FAA8F10108DA
:102CA000F2E7012D08BF002806D11499169B5A4659
:102CB0000846FFF771FEBCE70599059A641C091BDD
:102CC000884040EA0A0A0225E0B29042B1D1149D40
:102CD000169C0027164606E023465A4629462846F3
:102CE000FFF75AFE7F1CB742F6D31495169405964B
:102CF0005FFA8AF4169A089D9DF9090001990092DD
:102D00008540149A24EA050A51F82A105B461046B9
:102D1000FFF71FFE0024A2468AE7099A01A9484648
:102D2000FFF7D0FE04980BB0BDE8F08F2DE9F44F0B
:102D30008CB0074601208B4609900022B96988694A
:102D4000466804921C460021584601F003FB50B926
:102D5000B8690068C169012908D08168584601F046
:102D6000B8FA002802D44FF00108D7E1B8694168E9
:102D70008A69F869920007F11401FFF784FE5FEA9F
:102D80000008F2D100250CE009680A687969126828
:102D900001EB850101F01AFA5FEA000840F0B38107
:102DA0006D1CB9694A689369F8699D42ECD34FF08C
:102DB0000109721E09FA02F29200089201A9FFF7B6
:102DC00062FE5FEA0008AA4640F09481002510E008
:102DD000019800EB85013846FDF767FA5FEA0008C5
:102DE00040F08181019850F825103846FDF744FBEA
:102DF0006D1C711E09FA01F18D42E9D302970B9502
:102E0000039421460298FDF737FB9BF8040000F07D
:102E1000010007904FF00008029881690A6807983E
:102E200092685946C0F10100FFF722FDDBF800006F
:102E3000C6EB40155BF82000FFF7FBFDDBF8001048
:102E4000491E00EB4110711E09FA01F1491E05915E
:102E500009FA06F2069234460A902DE04246611CB9
:102E6000584601F0A6FA06460698301AFFF7F3FD19
:102E7000074604EB0800009001462846FFF7D2FD04
:102E800006990022FFF7C1FD40EA57070A9841461C
:102E9000FFF7C8FDE64006F00106631E059A9E4056
:102EA00046EA0701FFF7B1FD03464246611C58465A
:102EB00001F0A3FADDF80080A845CFD3651C424697
:102EC0002946584601F075FA4308424629465846B5
:102ED00001F093FA0C98007C002100F00400FFF749
:102EE0009CFD20B909900C990298FDF785FB0C997F
:102EF0000298FDF7D9FB5FEA000840F0E9800198ED
:102F000002680298866975680C992E680123B0479B
:102F100001990C9A002000900298866975684B68A8
:102F20000968D5F804C0E047611E8DF8001002253D
:102F30009DF80000029F09FA00F60EE0D7F818C0CD
:102F400050F82530DCF804E0DEF808C000EB85011D
:102F5000384651F8041CE0476D1C01980268B542E0
:102F6000ECD30C990120FDF72DFADBF800506D0130
:102F70002A1B611E584601F01CFA019951F82010D5
:102F8000039A0120FDF71EFAA5EB440502952EE0F9
:102F9000D7F818C0DCF804E0DEF800C001234A4688
:102FA00049463846E0476D1EF2D1049D01990698C6
:102FB000CDF80C90F54005F00105454051F826206C
:102FC00085F0010539462846FDF72FFA0498039B42
:102FD000B5404540019804951946BD6950F8262032
:102FE0006E68B5683846A8470298001B02900298A0
:102FF000A04210D302462146584601F0DAF99DF866
:1030000000200599DDF80C9020FA02F3069301EAFE
:1030100000062500C8E700222146584601F0C9F9FC
:103020009DF80020059920FA02F301EA000B0198AF
:1030300050F82B20049820FA0BF000F001004340D8
:10304000394683F00100FDF7F0F92546039C07E0BF
:10305000D6F800C00123224621463846E0476D1EBF
:10306000B8694668002DF3D102972146019803689C
:1030700050F82B20B5683846A84701980268906838
:10308000002101F067F903460198026802988669F9
:103090007568D5F800C02146E047019801682246CE
:1030A0000120FDF78FF9079802992246C0F101002F
:1030B000FDF7BBF9099858B90C990298FDF7C6FAC3
:1030C00080460C98A04203D002982146FDF7BEFA34
:1030D000029F0B9D07E0019800EB8501091F384610
:1030E000FDF73FF96D1E002DF5D1089AF86901A989
:1030F000FFF7E8FC554606E0796901EB8502111FF0
:1031000001F06FF86D1EF869002DF5D1B9694A68B4
:103110009269920007F11401FFF7D4FC40460DB00C
:10312000BDE8F08F2DE9F64F06468BB08946B169B0
:103130000A68906801F024F9B1698A681368B0FBE5
:10314000F3F81D465A1E009305FB18058DF8102054
:1031500001239DF8100083405B1E099300270A6835
:1031600013681C6805940223029707938A680692E5
:103170004868C169022904BF03200790002148461E
:1031800001F0E8F850B9B0690068C169012907D0B9
:103190008168484601F09DF8002801D4012493E19C
:1031A000B06941688A69F069920006F11401FFF77D
:1031B0006AFC0400F3D1BA460DE00068016870694A
:1031C0000A6800EB8A01F06901F000F8040040F0A1
:1031D0006F810AF1010AB06941688A699245ECDBA6
:1031E000CDF828A002A93046FDF75FF8040040F0B2
:1031F000548102993046FDF73FF999F8040000F038
:10320000010008904446B1690868826808984946F8
:10321000C0F10100FFF72CFBDDF800A0B8460BE081
:1032200008F1010B04FB0B520121484601F0C1F8E3
:1032300000FA08F00743D846AAF101008045EFD311
:103240000C993046FDF718F90C9801900621009171
:103250007F1C069A0798131D111D059A47437F1C72
:10326000574301EB870205990120FDF748F9A71E96
:1032700052E07A1904FB0B22521C0121484601F04E
:1032800098F800FA0BF040EA08080BF1010BD3455F
:10329000EFD3D6F818E09DF81000DEF804C00C9AC1
:1032A000DCF800C028FA00F000F0010B0123114601
:1032B0003046E0470298DDF81CE0DDF814C00190CC
:1032C000062106980091021DABF10101099881EADF
:1032D00008010840401C00FB0EF0401C00FB0CF0F5
:1032E00002EB8002002361460120FDF708F9029AF3
:1032F000CBF1010B31465846FDF797F800200090BE
:103300003046D6F818C0DCF804E00C9B029ADEF8D0
:1033100004C01946E0477F1E681E8041B7EBD07F8E
:1033200003DB4FF00008C346B1E79DBB002709E06F
:1033300004FB07F2521C0121484601F03AF8B8405C
:1033400005437F1C5745F3D3B46964680C9AD4F8DD
:1033500000C0012311469DF8100025FA00F7304601
:10336000E0470298DDF81CA0059C01900621069814
:10337000009107F00107021D791E09984D40054094
:103380006D1C05FB0AF56D1C6543002302EB8502ED
:1033900021464BE00698059A6F1E011D0C9D01EB1E
:1033A0008204924629E001232A4629463046E04716
:1033B0007A1C0121484600F0FCFF804602980190EB
:1033C000062100910023224651460120FDF797F87F
:1033D000029AC8F1010831464046FDF726F8002060
:1033E00000902B46D6F818C0DCF804E0029ADEF80C
:1033F00004C029463046E0477F1EB0694168D1F8D5
:1034000000C0002FCFDC2A460C9501231146304620
:10341000E04701220121484600F0CBFF0746062184
:103420000298009101900023224651460120FDF7A9
:1034300066F8029AC7F1010731463846FCF7F5FFF6
:1034400003A800903046B46965680C9B029A6C68CA
:103450001946A047B4696568039B0C9AD5F800A08B
:1034600003F0010311463046D047B0690168089C5B
:103470008A68C4F1010449462046FFF7F9F90C9A1D
:1034800031462046FCF7D1FF0C993046FDF7DEF8B7
:10349000044602A93046FCF764FFDDF828A007E0E7
:1034A000716901EB8A02111F00F09BFEAAF1010A6B
:1034B000F069BAF1000FF3DCB1694A6892699200D1
:1034C00006F11401FFF7FEFA20460DB0BDE8F08FBB
:1034D0002DE9F04F99B00E464FF0FF311291119146
:1034E000109101911746012105461791002207927C
:1034F00006921C46A9690868026813680A934FF08F
:103500000209CA681368049309920498DFF8342604
:10351000401E400802EB80031A1F0C92DFF8282699
:10352000DDF8888002EB8000031F0B934868C169B7
:10353000022908BF4FF0030941462846FCF79CFFCB
:1035400041462846FDF758F8A86900680894C16903
:10355000012910D08168304600F0BBFE002807D555
:10356000A86901680898896800F0B3FE002802D4B1
:1035700001200590E1E2A86941688A69E869920042
:1035800005F11401FFF77FFA00280590F2D100241D
:103590000CE009680A686969126801EB840100F0AF
:1035A00015FE0028059040F0BD82641CA9694A6898
:1035B0009369E8699C42ECD3049B0122991E8A40DE
:1035C0009200159202A9FFF75EFA0028A346059023
:1035D00040F09F8204990120891E002400FA01FA1C
:1035E00010E0029800EB84012846FCF75EFE0028FC
:1035F000059040F08782029850F824102846FCF786
:103600003BFF641C5445ECD30395189400213C46C1
:10361000207C00F00400FFF700FA20B91790214643
:103620000398FCF7E9FF03982146FDF73DF80028D1
:10363000059040F05C8203988569029F6D683A6846
:10364000EF6801232146B8470299002000902246E6
:10365000039885696D684B6809682F69B847039FAF
:10366000022510E00298D7F818C050F825300268FB
:10367000DCF804E0DEF814C000EB85006D1C50F8A7
:10368000041C3846E047012055450E90EAD30898BF
:1036900000F076FE0546304600F072FE85422CBFF3
:1036A0000898304600F06CFE0D960F94019D129C18
:1036B000119EDDF840A0CDF85890814675E0DDF808
:1036C00030C0039A0698169E0191101AA0F1010EBF
:1036D0004FEADE0E401E06218000009100F01C0023
:1036E0005CF82EC0099A2CFA00F0131D111D00F091
:1036F0000F000A9A4643761C724301EB82020A9934
:103700000120FCF7FCFE0298026839460120FCF714
:103710008CFE3AE00399081A0B99421ED208401E0B
:1037200051F82250800000F01C00C5409DF8026056
:1037300005F00F05761B76B2AEBB02980168069ABB
:1037400001988242BBDA0C9EDDF818C0169A0998DF
:1037500001914FEADC0C06210091031D56F82C6004
:10376000DDF818C00A994FEA8C0E0EF01C0E26FAEE
:103770000EF606F00F067243521C001D514300EB7B
:1037800081020A990120FCF7BAFE029900200090FC
:103790004346BE69D6F804C00A68DCF810604146AA
:1037A0003846B047109EA9F10109B9F1000FD8BF02
:1037B000002C06DCBAF1000FDCBF002E002D40F318
:1037C0003A81B9F1000F0AD4D7F818C0DCF804E048
:1037D000DEF80CC00123424641463846E047002C43
:1037E00002DD641E64B206E0BAF1000FC4BFAAF1A4
:1037F00001004FFA80FA002E02DD761E76B203E059
:10380000002DC4BF6D1E6DB204990E98491C8840EE
:10381000401E8DF8030004980E99421E91400191BC
:103820000498049A411E8DF80210A2EB09020E982A
:1038300004998DF80120884004990390A9EB0101B7
:103840001491C9F10102049904988DF80020A9EBA4
:1038500001011291401C002CA9F101014FF0FF322F
:10386000C8BFBAF1000F13901191109256DCB9F154
:10387000000F06DD119A0D98022100F09AFDC0B2EA
:1038800007E00D9841689DF8000001FA00F000F093
:103890000300002C41D5BAF1000F3FDC00F001011C
:1038A00091EA600F00F080801498002805D4129AE5
:1038B00013990D9800F07DFD08E00D9841689DF882
:1038C000010001FA00F09DF803100840019A0199E7
:1038D000801AC0B2884207900BDA0B980799C90882
:1038E00050F821200798810001F01C0122FA01F014
:1038F0000CE00399081A0B99421ED208401E51F899
:103900002210800000F01C0021FA00F09DF8024017
:1039100000F00F0AA4EB0A0464B2002C44D107980B
:103920000199884216DA0C980799C90850F82100C5
:1039300007998A00B96902F01C02D0404A685469AC
:1039400010F00F00434601D10F9A29E0029951F877
:10395000202025E003980799411A0C984A1ED208A6
:10396000491E50F82200890001F01C01C84002994C
:103970000A6810F00F000CBF0F9951F820100120B9
:10398000FCF720FD0298026839460120FCF74DFD46
:10399000BC690298D4F804C00268DCF814404346BD
:1039A00041463846A047109C002EC8BF002D15DCAC
:1039B000B9F1000F06DD119A0898022100F0F9FC18
:1039C000C0B207E0089841689DF8000001FA00F0D5
:1039D00000F00300002E7FF5AFAE002D3FF7E3AE01
:1039E00000F0010191EA600F3FF4DDAE1498002869
:1039F00005D4129A1399089800F0DBFC08E00898A7
:103A000041689DF8010001FA00F09DF8031008409C
:103A1000019A0199801AC0B288420690BFF67AAE28
:103A20000B980699C90850F821500698810001F0BA
:103A30001C01CD407AE60397B9F1000F0D9C0F9E53
:103A4000089FDDF828A0099D46D10398D0F818E01A
:103A5000DEF80490D9F80CC0012342464146E04705
:103A60002079C10717D50298026831460120FCF77A
:103A7000A9FC0298026803990120FCF7D6FC039880
:103A8000D0F818C0029ADCF804401268D4F814C0C8
:103A900043464146E0473879C1071DD50298016881
:103AA000019106220092281D00EB8A022B1D51462F
:103AB0000120FCF724FD0298026803990120FCF71D
:103AC000B4FC0299002000904346039887697C6803
:103AD0000A6827694146B847179840B903983146A4
:103AE000FCF7B4FD059041460398FCF7AFFD039D3C
:103AF000189C07E0029800EB8401091F2846FCF798
:103B000030FC641E002CF5D1159AE86902A9FEF775
:103B1000D9FF5C4606E0696901EB8402111F00F0E1
:103B200060FB641EE869002CF5D1A9694A689269B6
:103B3000920005F11401FEF7C5FF059819B0BDE824
:103B4000F08F00BF4C3B0008583B000810010000FC
:103B50004024521561367307012000000310012034
:103B6000021001402DE9FC4781460F460020924695
:103B700000901E463A686946484600F027FB00253B
:103B80005FEA000838D10098002100F056FB009A47
:103B90003946012000F060FB0124AAF1010704FA74
:103BA00007F71CE00021715513E000984168C80731
:103BB000F8D504FA0AF0421E11404AB27BB29A428A
:103BC000A8BFC91B715549B2009A49421046FEF779
:103BD0007FFD009A01211046FEF70BFC6D1C00983A
:103BE000002100F0B7FB0028DFD00A9800B1056083
:103BF0006946484600F0F5FA4046BDE8F687000001
:103C000000B581B00168074A914200D110B9064859
:103C100001B000BD7C2104F0A1FD4FF4003001B0E3
:103C200000BD00BF0C3D0008030002002DE9F0417B
:103C30000B4A92E8F85188B0694681E8F851026869
:103C4000084B9A4200D118B9074808B0BDE8F08186
:103C50002022083000F091FE08B0BDE8F08100BFDE
:103C6000EC3C00080C3D000803000200212904D2AE
:103C70000268044B9A4200D108B9034870470830E3
:103C800000F08ABE0C3D00080300020010B481B0B1
:103C900013460268074CA24200D118B901B010BC0B
:103CA0000548704701B000F1240210BC083000F054
:103CB00077BE00BF0C3D00080300020010B481B0C5
:103CC00013460268074CA24200D118B901B010BCDB
:103CD000054870470A4601B000F1240110BC0830C5
:103CE00000F0B2BE0C3D00080300020067E6096A5E
:103CF00085AE67BB72F36E3C3AF54FA57F520E510D
:103D00008C68059BABD9831F19CDE05B013C000893
:103D10002D3C00086D3C00088D3C0008BD3C0008AF
:103D2000F0B5A3B004460B4802900D4616461F4658
:103D3000094B0822402104A800F01BFE289801909E
:103D4000009733462A46214602A8FEF7BDFA23B063
:103D5000F0BD00BF0C3D0008F49500082DE9F04FC0
:103D6000C1B00B681BBA019302464B6801A81BBA8D
:103D700043600DF1440C8B681BBA8360CB681BBA9F
:103D8000C3600B691BBA03614B691BBA43618B6942
:103D90001BBA8361CB691BBAC3610B6A1BBA03628E
:103DA0004B6A1BBA43628B6A1BBA8362CB6A1BBA2B
:103DB000C3620B6B1BBA03634B6B1BBA43638B6B06
:103DC0001BBA8363C96B09BAC16318205CF8084C3D
:103DD0004FEAF44191EA74435CF83C1C83EA942373
:103DE0004FEAB1475CF81C4C97EAF116234486EA87
:103DF000D106F3185CF8406CF318CCF800305CF88E
:103E0000044C4FEAF44696EA74435CF8386C83EA53
:103E100094234FEAB64A5CF8184C8AEAF617234412
:103E200087EAD607FB18C918CCF80410401E0CF11D
:103E3000080CCBD110460092C16DC36ED0F860E083
:103E4000D0F87080426E446FD0F868A0856FDFF8BC
:103E5000F4900DF1040C20204FEAB31686EAF32605
:103E600086EA7366751984EA08061E40664075196D
:103E700059F8046B5CF8047B75197E194FEAB10799
:103E80004EEA010B87EA71370EEA01050BEA020BD5
:103E900087EAB1574BEA0505EF19454606EB0A08D4
:103EA0009246724607EB060E4FEAB81686EAF826E7
:103EB00086EA7866341985EA030606EA08066E4043
:103EC000341959F8046B5CF8047B34193E194FEA35
:103ED000BE0741EA0E0B87EA7E3701EA0E040BEAC1
:103EE000020B87EABE574BEA0404E7191C4606EBAF
:103EF0000A0392460A46B919401EADD10098C66D14
:103F00003144C1650099086E704408660098416E9E
:103F1000521842660099886E504488660098C16EB7
:103F20005B18C3660099086F404408670098416FAA
:103F3000641844670099886F2D188D6741B0BDE8FB
:103F4000F08F00BFF4940008F8B50124009400231A
:103F500000240DE0009D065D0F5D7E40F643761C5B
:103F6000F60F86F0010635400095641C009DEB18A5
:103F70009442EFD31846F2BDF8B500230124009413
:103F8000002A11E0009C85188F1815F8016C17F8AD
:103F9000015C6E40F643761CF60F86F00106344055
:103FA0000094009CE318521EECD11846F2BD2DE996
:103FB000F841012400940B4695080021A2EB8505E9
:103FC00000241B1F1CE002F1030C4FEA9C0C009E16
:103FD00053F82CE0075DA5EB0408A8F1010C4FEAAB
:103FE000CC0C2EFA0CFE8EEA0707FFB2FF437F1CB3
:103FF000FF0F87F001073E400096641C009E711879
:10400000AC42E0D30025920817E00619571B56F87A
:10401000256053F8277036BA7E406FEA060E0EF11F
:10402000010E4EEA0606009FF60F86F001063E409E
:1040300000966D1C009E01EB86019542E5D3084673
:10404000BDE8F281FCB50125960803460095A2EB78
:10405000860600240196104615E01D18161A55F81C
:10406000045CB60851F82660009F2DBA7540EE43F7
:10407000761C3543ED0F85F001053D400095001F8E
:10408000009D04EB85040328E7D8019800281CE074
:10409000019D009E1F182D1A17F801CCD71C4FEA5E
:1040A000970E01EB8E07ED0057F8047C27FA05F513
:1040B00085EA0C05EDB2ED436D1CED0F85F00105B1
:1040C0002E400096009D2C19401EE1D12046F6BDE1
:1040D000493F0008793F0008010000002DE9F84F32
:1040E0001D46DDF828900B9F0D9C4FF0FF33009389
:1040F0000E469246D9F800B0804632465146D8471F
:10410000834664B3D9F80430324651464046984756
:104110006FEA0B02521C42EA0B0200996FEAD2735B
:104120005B1C1940C2430091521C024300996FEA84
:10413000D2735B1C1940009186F05531484087EAE4
:10414000000181F05531216080F05531C943491C8F
:104150000843009A6FEAD070401C82430092D9F85D
:104160000800012809D17540E943491C0D43009816
:104170006FEAD572521C90430AE0F11C85EA910265
:10418000D243521C154300986FEAD5735B1C9843C9
:1041900086F0AA36009086EA0B0686F0AA33F24330
:1041A000DB430C98C2F3C0725B1C42EAD3720099E5
:1041B000D243521C91430091774000998843009963
:1041C00087F0AA370F403843BDE8F28F38B515465F
:1041D000AA000C46121DFEF756FC08B921680D60B6
:1041E00032BD10B50C4623681A689200121DFEF706
:1041F00069FC0023236010BD70B503460020002B2E
:1042000018BF002900D00AB9012070BD1C68A24265
:1042100028BF2246012406E001EB840555F8046C12
:1042200043F82460641CA242F6D21968A14224BF5C
:1042300043F82400641CF8D270BD024600200AB97D
:10424000012070475160022102E042F82100491C20
:1042500013688B42F9D270472DE9F843164607469A
:1042600088463068D8F800400025401C7A4204E0B7
:1042700058F8201011400D43401C8442F8D2306899
:10428000A04238BF04465FEA04090AE056F8292034
:1042900058F829103846FEF7B8FB46F82900B9F15E
:1042A0000109F3D1641C791E05E056F8240008408A
:1042B00046F82400641C3068A042F6D2002D14BFDA
:1042C00003200020BDE8F2834042514008405040A6
:1042D00070472DE9F04784468E46DCF80010DEF882
:1042E000005001260027A942BA460FD3084664466B
:1042F0000121854224D254F820200023524263EB4E
:10430000430303F001031F43401EF2E728460D4616
:1043100074464FF0FF31EEE75CF820205EF8204055
:1043200000250023B4EB020865EB03096240521E2E
:1043300006EA090563F1000345EA0A0A1E40401E29
:104340000028E9D1384606EB4A02BDE8F047521E84
:10435000FEF75BBB10B50A460168002303E050F886
:1043600021402343491E0229F9D2406842400021DE
:1043700042EA0300FEF751FBBDE81040FEF74ABBDE
:10438000F8B5054600222E6834000BE0574217436B
:10439000FF4355F82410F80FFEF737FB0246A6EB53
:1043A000D776641EF2D11046FEF743FB00EB4610B1
:1043B000F2BDF8B506460C465709306802F01F05F5
:1043C000791CFEF72FFBBB1C41420B4056F8231013
:1043D0000022FEF71AFB06EB870104F01F044A686F
:1043E000EA40C5F1200500FA05F5012000FA04F4C1
:1043F0001543641E04EA0500F2BD2DE9F04780462E
:10440000012001F01F0600FA06F65509761E6D1C04
:10441000D8F8000006EA030902F01F0A01F01F079E
:104420002946FEF7FFFA5744203F0446F84358F860
:104430002510C0F3C07006FA0AF6044021EA060609
:10444000784248F8256004EAD07409FA0AF0064375
:1044500048F825604FF0FF3202FA07F12046FEF7D8
:10446000D4FA6D1C61420D4058F82520104048F8E0
:104470002500CAF1200A002229FA0AF12046FEF797
:10448000C4FA58F82510084348F82500BDE8F0871D
:10449000F8B50AB110B909B10120F2BD1368CC1CFE
:1044A000B3EB940F01D20320F2BD79B38B085B1CF0
:1044B00001240FE0A1EB840505446F782E783F04BA
:1044C00047EA0667AE78ED7847EA06272F4342F8B9
:1044D0002470641C9C42EDD31568A54222BF0026BF
:1044E00042F82460641CF7D211F0030111D0047863
:1044F00042F8234001248C420BD252F82350065D2F
:1045000046EA052642F82360641CF4E71046FFF7EC
:1045100094FE0020F2BDF8B500230AB110B909B12C
:104520000120F2BD1468CD1CB4EB950F01D203201D
:10453000F2BDB9B3002410E0061902EB850596F828
:1045400002C0F7784FEA0C4C4CEA076C7778367863
:104550004CEA07273E436E60241DA508CE1EB442D8
:10456000EAD311F0030F11D06D1C42F825300BE097
:10457000075D52F825604FEAC30C07FA0CF73E437B
:1045800042F825605B1C641C8C42F1D3E41CA40837
:10459000641C00211068A04224BF42F82410641C4F
:1045A000F8D202E01046FFF748FE0020F2BD2DE9E8
:1045B000F04F86B051F8044BCDE900010292B0E80B
:1045C000E001A4FB059A4FF0000EAEFB0EBCE4FB2D
:1045D00066ABE4FB67BCE4FB68CEA3E8001E121FD9
:1045E000B0E8E001F1464FF0000EAEFB0EABF44632
:1045F000E4FB659AE4FB66ABE4FB67BCE4FB68CED6
:10460000A3E8001E121FEBD1029AA3EB8203CDF8A0
:104610000CE0DDE90F04B0E8E0014FF000091946B5
:10462000B3E8005C04FB0AF4E4FB659AE4FB66ABC8
:10463000E4FB67BCE4FB68CEA1E8001CB2F1040215
:10464000B0E8E001F146B3E8005CE4FB659AE4FB06
:1046500066ABE4FB67BCE4FB68CEA1E8001E121F5A
:10466000EED1DDF80CC04FF0000A1CEB0E0C4AF145
:10467000000BC1F800C0CDF80CB0029AA2F1010AFB
:10468000CDF814A0DDE9000151F8044BCDF8041079
:104690004FF0000EA3EB8203B0E8E001F14693E88F
:1046A000005CE4FB659AE4FB66ABE4FB67BCE4FBFF
:1046B00068CEA3E8001E121FEED1029AA3EB82037C
:1046C000039D4FF000091EEB050549EB0906CDE9F6
:1046D0000356DDE90F04B0E8E0011946B3E8005CD9
:1046E00004FB0AF4E4FB659AE4FB66ABE4FB67BCFD
:1046F000E4FB68CEA1E8001C121FB0E8E001F1461F
:10470000B3E8005CE4FB659AE4FB66ABE4FB67BCE2
:10471000E4FB68CEA1E8001E121FEED1DDE903BC68
:104720001BEB0E0B5CF1000CC1F800B0CDF80CC017
:10473000DDF814A0BAF1010ACDF814A0029AA1D1B3
:10474000A3EB82030F98F0CBB0E8000FB4EB0804A2
:1047500075EB090576EB0A0677EB0B07A2F104026D
:104760006AB1F0CBB0E8000F74EB080475EB0905F3
:1047700076EB0A0677EB0B07A2F10402F0E77CF177
:10478000000C6FEA0C0C029AA3EB8203A0EB8200F0
:1047900093E8F000B0E8000F08EA0C0809EA0C09F9
:1047A0000AEA0C0A0BEA0C0BB4EB080475EB0905DA
:1047B00076EB0A0677EB0B07F0C3A2F10402BAB15D
:1047C00093E8F000B0E8000F08EA0C0809EA0C09C9
:1047D0000AEA0C0A0BEA0C0B74EB080475EB0905EA
:1047E00076EB0A0677EB0B07F0C3A2F10402E6E7CB
:1047F00006B0BDE8F08F2DE9F04FDDF824400992B6
:104800004FEA81014FF0000BABFB0BA58C46BCF1CE
:10481000040C50F80CE043F80CE000D0F7E7084433
:10482000D3F80090ABFB0B7809FB04F90E469E46CB
:10483000DEF8007052F804CBA6F10406E9FB6C78B0
:1048400056B1DEF8047052F804CBA6F10406E9FB79
:104850006C784EF8047BF3E7099A80C84FF0010C9E
:10486000EAFB6C78CEF80070C24605F104058D4273
:10487000D6DB9C4693460D1E35B15CF8046B80CAAE
:10488000BE41A5F10405F7E766EB06060AEB060C48
:104890006FEA0C0C9A465A460D1E4DB180CA5AF862
:1048A000046B07EA0C07BE4140C3A5F10405F4E719
:1048B000BDE8F08F2DE9704F92005FF000095FEACC
:1048C000420BABF1040B04D0BBF1040B43F80B908B
:1048D000FAD15FEA020B17D0002450F804CB9E46B1
:1048E00092460E46DEF8005056F8048BECFB6854F6
:1048F0004EF8045BBAF1040AF4D1CEF8004003F19B
:104900000403BBF1040BE7D1BDE8708F20225C30BB
:1049100003F022BFF0B58468A308002204F003046A
:1049200007E000F15C0555F8226035BA41F82250E5
:10493000521C9A42F5D300220BE000F15C0502EB19
:10494000830755F82360D500C5F11805EE40CE5514
:10495000521CA242F1D3F0BD30B5C46803690022F5
:10496000E31AD5188C5C0544521C082A2C77F8D31E
:1049700030BD0360C1600261704738B5044615461A
:104980000022626023685A68904700206061A0613D
:10499000A5604FF4003032BD81604FF400307047A5
:1049A0002DE9F84304462079D4F80C80450748BF28
:1049B000244845D466691D46A8F1010000EAD603E3
:1049C00006EBC506B6EBC50F666102D2A669761C7A
:1049D000A6611746A66906EB5576A6610E46E9184C
:1049E000884225D2A8EB03094A463146F81803F05D
:1049F000B3FE2268136839460FE04246384603F09A
:104A0000ABFE23681A6839462046904707E0311804
:104A100011F00300F1D122681368204698474846F8
:104A200000EB0809A9F10101A942F0D3002300E03D
:104A300000202A1A3118F81803F08EFE4FF40030C7
:104A4000BDE8F283040002002DE9FC4F024685B068
:104A5000D0681369DFF86CC1DFF86C81A0EB030A42
:104A6000506840F004005060002703A802900DF148
:104A70000C0ED8E9003403A8544DC0E9003428785E
:104A8000534D00280CBF0023042399465CF80330E3
:104A90005EF80940234401261D601C689E60DCF816
:104AA0000430039DDCF80090DEF804605D40654052
:104AB000484C654089EA0606474C66407519474CE4
:104AC0006540D8E9006B03AC0028C4E9006B0EBF59
:104AD000002404200424029E5CF8000034592018AD
:104AE0003F4C04600126046886600398029E4340A0
:104AF0006340384C7068634089EA0000364C60407F
:104B0000034438484340280018BF01205B1E9B41E6
:104B1000042F2CBFC0B2D80F02F1140353F82000A9
:104B200007F00303C3F10303DB00D8400DF80700CF
:104B30007F1C082F9DD315460C466A69AB69E8684F
:104B4000D20842EA4372401E00EA020700230240F4
:104B50009B420AD8524508D28020E0557F1C574519
:104B600016D2AAEB0701E01910E08020E05500E022
:104B7000E355E8687F1C8742FAD32A681368284601
:104B80009847BAF1000F03D05146204603F0E6FDE6
:104B90002A68069E059F93686946284698472A68B2
:104BA000D2F8009021462846C8472B68DA68394673
:104BB000284690470EB1A86830604FF4003007B027
:104BC000BDE8F08FA4940008E84B0008BC0000206A
:104BD0005FC5109304850012FC68017AC0F524FFBC
:104BE00024AF33D426AF698B04B00101001701450F
:104BF000034613F8012B002AFBD1181A013870471D
:104C000001F0FF01102A2BDB10F0070F08D010F87D
:104C1000013B013A8B422DD010F0070F42B3F6D181
:104C2000F0B441EA012141EA014122F007047FF09A
:104C300000070023F0E80256083C85EA010586EAF1
:104C4000010685FA47F5A3FA87F586FA47F6A5FA2D
:104C500087F68EB9EED1F0BC01F0FF0102F0070239
:104C600032B110F8013B013A83EA010313B1F8D1E4
:104C70000020704701387047002D06BF35460338C5
:104C8000073815F0010F07D1013015F4807F02BFFE
:104C9000013015F4C03F0130F0BC0138704700BF4F
:104CA00080B485B000AF7860084B5B69074A43F079
:104CB00040035361054B5B6903F04003FB60FB68F5
:104CC000002318461437BD4680BC704700100240D0
:104CD00080B500AF00F046FD00F032F800F012F9A8
:104CE00000F0B0F800F08CF800F0DCF80020FDF7E0
:104CF00019FB0346002B04D00E4800F069F900F0C0
:104D0000F9F900F08BFB4FF400510B4801F0C4FAA5
:104D10000346002B05D1094800F05AF900F07EF94E
:104D200004E0064800F054F900F0C2F900231846E8
:104D300080BD00BF1C900008000800484490000897
:104D400080B5A6B000AF07F17003282200211846F5
:104D500003F0CEFC07F15C0300221A605A609A60EF
:104D6000DA601A613B1D58220021184603F0C0FC8E
:104D700002233B670123FB671023C7F8803002231F
:104D8000C7F888304FF40043C7F88C304FF4E01375
:104D9000C7F890300023C7F8943007F17003184625
:104DA00001F0A8FA0346002B01D000F0A3F90F236D
:104DB000FB6502233B6600237B664FF48063BB6682
:104DC0000023FB6607F15C030221184602F0B6FAE5
:104DD0000346002B01D000F08DF906237B600023F1
:104DE0003B6100237B613B1D184602F0B7FC034684
:104DF000002B01D000F07EF900BF9837BD4680BD82
:104E000080B500AF0D4B0E4A1A600C4B00221A7190
:104E10000A4B00225A71094B00225A61074B0022AB
:104E20009A61064B01221A62044800F0E1FD034634
:104E3000002B01D000F05EF900BF80BDC000002053
:104E40000030024080B500AF144B154A1A60134B76
:104E50004FF4E1325A60114B00229A600F4B00224E
:104E6000DA600E4B00221A610C4B0C225A610B4B7C
:104E700000229A61094B0022DA61084B00221A6273
:104E8000064B00225A62054802F084FE0346002BBE
:104E900001D000F02FF900BF80BD00BFE40000206A
:104EA0000044004080B500AF144B154A1A60134B04
:104EB0004FF416425A60114B00229A600F4B0022A9
:104EC000DA600E4B00221A610C4B0C225A610B4B1C
:104ED00000229A61094B0022DA61084B00221A6213
:104EE000064B00225A62054802F054FE0346002B8E
:104EF00001D000F0FFF800BF80BD00BF6C010020B2
:104F00000048004080B58AB000AF07F114030022CA
:104F10001A605A609A60DA601A612B4B5B692A4A00
:104F200043F400235361284B5B6903F400233B6186
:104F30003B69254B5B69244A43F480035361224B50
:104F40005B6903F48003FB60FB681F4B5B691E4ACF
:104F500043F4003353611C4B5B6903F40033BB60C3
:104F6000BB68194B5B69184A43F480235361164BA5
:104F70005B6903F480237B607B68002220214FF073
:104F8000904001F0A0F94FF400537B614FF40413FB
:104F9000BB610023FB6107F1140319460B4800F0C5
:104FA000F1FF20237B610123BB610023FB61002310
:104FB0003B6207F1140319464FF0904000F0E2FF06
:104FC00000BF2837BD4680BD0010024000080048E1
:104FD0000FB480B596B000AF07F164037B6007F1B2
:104FE00008037A68396E184603F078FB07F1080366
:104FF0001846FFF7FDFD03469AB207F108014FF08E
:10500000FF33054802F014FE00BF5837BD46BDE827
:10501000804004B0704700BF6C01002080B500AF35
:105020000A2200211E4803F063FB4FF0FF330122E8
:105030001B491C4802F085FE194B1B78803B032B53
:1050400028D801A252F823F05950000861500008F6
:10505000775000088D500008114800F051F81DE00D
:105060004FF0FF33052210490E4802F06AFE0C484B
:1050700000F06AF812E04FF0FF3305220A490948B0
:1050800002F05FFE064800F083F907E0044800F0F4
:105090008BF803E00548FFF79BFF00BFC0E700BFA8
:1050A000F4010020E4000020F501002080900008B9
:1050B00080B584B000AF0C48FFF78AFF0B4B1B682C
:1050C000FB60FB683B603B6883F3088800BF084BCC
:1050D0001B68BB60BB687B6072B600BF7B6898478B
:1050E00000BF1037BD4680BDB89000080000020820
:1050F0000400020880B400AF72B600BF00BFFDE735
:1051000080B584B000AF78600D48FFF761FF00F014
:10511000F5F80346FB7300233B73FB7B7B73FB7B40
:10512000FA7B19460748FFF753FF07F10C030221EA
:10513000184600F0EBF800BF1037BD4680BD00BF39
:10514000EC9000081891000880B588B000AF786036
:1051500007F110031946786800F0ECF800F0AAFD9A
:1051600007F10C0207F110031146184600F066FE25
:105170000346FB7700F0C4FDFB7F002B05D17B6865
:105180001B783B72FB7F7B7204E07B681B783B7271
:10519000FB7F7B7207F108030221184600F0B6F886
:1051A00000BF2037BD4680BDB0B5D6B000AF07F513
:1051B000AC73A3F5AA73186000F07CFD07F5AC731F
:1051C000A3F5AA731B68591C4FF0FF330122454811
:1051D00002F0B7FD07F14C014FF0FF334FF480723E
:1051E000404802F0AEFD07F14C03C7F850310023F0
:1051F000C7F854312BE03C4B1968D7F854319B0069
:10520000D7F8502113441B6800221C46154622463D
:105210002B46022000F0DEFC034687F84F3197F85A
:105220004F31002B09D1304B1B6804332E4A1360D9
:1052300097F84F3187F84E3104E097F84F3187F8EF
:105240004E3108E0D7F854310133C7F85431D7F85C
:1052500054313F2BCFD907F14C034FF4807200211A
:10526000184603F045FA214B1B8803F580739AB268
:105270001E4B1A8007F5AC73A3F5AA731B681B7845
:1052800087F84C3107F5AC73A3F5AA731B685B78FC
:1052900087F84D3107F5A6730321184600F036F85C
:1052A00000F02EFD114B1A88114B1B889A4214D125
:1052B00007F10C014FF0FF3340220A4802F041FD94
:1052C0000B4B1B881A460B490B4800F0B9F807F145
:1052D0000C031946084800F0D1F800BF07F5AC7779
:1052E000BD46B0BDE40000200C02002006020020F4
:1052F00004020020000002081002002080B400AF69
:1053000010231846BD4680BC7047000080B582B0AF
:1053100000AF786039603B689AB24FF0FF3379682C
:10532000034802F085FC00BF0837BD4680BD00BFC2
:10533000E400002080B485B000AF786039600023BD
:10534000FB600023BB607B6801331B781A067B6817
:1053500002331B781B041A437B6803331B781B0240
:1053600013437A68043212781343FB607B68053379
:105370001B78BB603B6800221A603B68FA685A6081
:105380003B68BA689A6000BF1437BD4680BC70475E
:1053900080B584B000AF78607B6801331B781A0653
:1053A0007B6802331B781B041A437B6803331B782A
:1053B0001B0213437A68043212781343134A1360B2
:1053C0007B6805331B781B029BB27A680632127821
:1053D00013439AB20E4B1A800D4B1B881B0A9AB2CC
:1053E0000C4B1A80094B1B680B4A13607B681B78B7
:1053F0003B7300237B7307F10C0302211846FFF770
:1054000085FF00BF1037BD4680BD00BF00020020F1
:1054100004020020080200200C02002080B500AF2A
:10542000044B19684FF40063034A0448FAF7D8FEA6
:1054300000BF80BDCC94000848020020300200204C
:1054400080B58AB002AFF860B9601346FB800023D4
:105450007B61BB68FB61084B1868FA8807F114038D
:10546000019320230093FB68F969FCF713FFB861EF
:1054700000BF2037BD4680BDF094000880B58AB0DB
:1054800006AF786039600023BB600D4B196807F1E7
:1054900008030493402303933B6802932023019362
:1054A0007B6800934023074A0748FCF77FFDF860BC
:1054B000FB68064A934200BF1037BD4680BD00BF5F
:1054C00080940008000000203002002026C706005B
:1054D00080B582B000AF0F4B9B690E4A43F00103C9
:1054E00093610C4B9B6903F001037B607B68094B64
:1054F000DB69084A43F08053D361064BDB6903F054
:1055000080533B603B68072000F03EFA00BF08373D
:10551000BD4680BD0010024080B485B000AF786009
:105520007B681B68094A93420BD1094B5B69084AA7
:1055300043F040035361064B5B6903F04003FB609B
:10554000FB6800BF1437BD4680BC70470030024086
:105550000010024080B58CB000AF786007F11C03EA
:1055600000221A605A609A60DA601A617B681B68D0
:105570002F4A934229D12F4BDB692E4A43F4003343
:10558000D3612C4BDB6903F40033BB61BB69294B4E
:105590005B69284A43F400335361264B5B6903F48B
:1055A00000337B617B690C23FB6102233B62002398
:1055B0007B620023BB620723FB6207F11C031946D1
:1055C0004FF0904000F0DEFC2DE07B681B681A4A2B
:1055D000934228D1174BDB69164A43F48023D361E9
:1055E000144BDB6903F480233B613B69114B5B691E
:1055F000104A43F4002353610E4B5B6903F400230C
:10560000FB60FB684FF44063FB6102233B620023B5
:105610007B620323BB620723FB6207F11C0319466D
:10562000064800F0AFFC00BF3037BD4680BD00BF6C
:1056300000440040001002400048004000080048BC
:1056400080B400AF00BFFDE780B400AF00BFFDE74E
:1056500080B400AF00BFFDE780B400AF00BFFDE73E
:1056600080B400AF00BFFDE780B400AF00BFBD460F
:1056700080BC704780B400AF00BFBD4680BC70479F
:1056800080B400AF00BFBD4680BC704780B500AF9E
:1056900000F0AEF800BF80BD80B586B000AF786086
:1056A000144A154BD31A7B617B693B61134B1B6812
:1056B000002B02D1114B124A1A60104B1A687B68FA
:1056C00013443A699A4207D203F01AF803460C22AF
:1056D0001A604FF0FF3309E0084B1B68FB60074B73
:1056E0001A687B681344054A1360FB68184618372C
:1056F000BD4680BD0000012000100000480A0020C7
:10570000B80B002080B400AF00BFBD4680BC70471E
:10571000DFF834D0FFF7F6FF0C480D490D4A00239F
:1057200002E0D458C4500433C4188C42F9D30A4A56
:105730000A4C002301E013600432A242FBD302F0C2
:10574000E5FFFFF7C5FAFEE700000120000000209A
:105750009C000020F4980008A0000020B80B002056
:10576000FEE7000080B500AF084B1B68074A43F016
:1057700010031360032000F007F9002000F008F880
:10578000FFF7A6FE0023184680BD00BF00200240A0
:1057900080B582B000AF7860124B1A68124B1B784C
:1057A00019464FF47A73B3FBF1F3B2FBF3F31846E7
:1057B00000F011F90346002B01D001230EE07B68B5
:1057C0000F2B0AD8002279684FF0FF3000F0E7F87D
:1057D000064A7B681360002300E00123184608375F
:1057E000BD4680BD4000002048000020440000204D
:1057F00080B400AF054B1B781A46054B1B68134459
:10580000034A136000BFBD4680BC704748000020BB
:105810004C0A002080B400AF024B1B681846BD46FE
:1058200080BC70474C0A002080B485B000AF78601F
:105830007B6803F00703FB600C4BDB68BB60BA6856
:105840004FF6FF031340BB60FB681A02BB681343AB
:1058500043F0BF6343F40033BB60044ABB68D360CA
:1058600000BF1437BD4680BC704700BF00ED00E0AC
:1058700080B400AF044BDB681B0A03F00703184633
:10588000BD4680BC704700BF00ED00E080B483B02F
:1058900000AF03463960FB7197F90730002B0ADB34
:1058A0003B68DAB20C4997F907301201D2B20B44C7
:1058B00083F800230AE03B68DAB20849FB7903F079
:1058C0000F03043B1201D2B20B441A7600BF0C370F
:1058D000BD4680BC704700BF00E100E000ED00E085
:1058E00080B489B000AFF860B9607A60FB6803F0FB
:1058F0000703FB61FB69C3F10703042B28BF0423E3
:10590000BB61FB690433062B02D9FB69033B00E052
:1059100000237B614FF0FF32BB6902FA03F3DA43E5
:10592000BB681A407B699A404FF0FF317B6901FAEE
:1059300003F3D9437B680B40134318462437BD4615
:1059400080BC704780B582B000AF78607B68013B57
:10595000B3F1807F01D301230FE00A4A7B68013B4A
:1059600053600F214FF0FF30FFF790FF054B0022EF
:105970009A60044B07221A60002318460837BD4678
:1059800080BD00BF10E000E080B582B000AF78605D
:105990007868FFF749FF00BF0837BD4680BD80B576
:1059A00086B000AF0346B9607A60FB7300237B6169
:1059B000FFF75EFF78617A68B9687869FFF790FF52
:1059C000024697F90F3011461846FFF75FFF00BFF8
:1059D0001837BD4680BD80B582B000AF786078686A
:1059E000FFF7B0FF034618460837BD4680BD0000EC
:1059F00080B582B000AF78607B68002B01D10123B5
:105A000054E07B685B7FDBB2002B05D17B68002212
:105A10001A777868FFF780FD7B6802225A777B68E7
:105A20001B79002B0CD17B681B68224A5A617B686A
:105A30001B689A687B681B6822F018029A600CE069
:105A40007B6899687B68DB681A46786800F034F8F0
:105A50000346002B01D0012328E07B685B79002BF3
:105A600005D17B681B684FF0FF321A6104E07B6848
:105A70001B687A6812691A617B681B689B6823F04F
:105A800060017B685A697B681B680A439A607B687F
:105A90001B689B6823F080017B689A697B681B68A0
:105AA0000A439A607B6801225A7700231846083718
:105AB000BD4680BDB71DC10480B487B000AFF8609B
:105AC000B9607A600023FB751F233B61BB6803F05C
:105AD0000103002B02D10123FB7563E000BF3B698A
