:020000040800F2
:1000000000000120ED0B0008FD0A0008050B0008A8
:100010000D0B0008150B00081D0B00080000000068
:10002000000000000000000000000000250B000898
:10003000330B000800000000410B00084F0B0008C4
:100040003D0C00083D0C00083D0C00083D0C00086C
:100050003D0C00083D0C00083D0C00083D0C00085C
:100060003D0C00083D0C00083D0C00083D0C00084C
:100070003D0C00083D0C00083D0C00083D0C00083C
:100080003D0C00083D0C00083D0C00083D0C00082C
:100090003D0C00083D0C00083D0C00083D0C00081C
:1000A0003D0C00083D0C00083D0C00083D0C00080C
:1000B0003D0C00083D0C00083D0C00083D0C0008FC
:1000C0003D0C00083D0C00083D0C00083D0C0008EC
:1000D0003D0C00083D0C00083D0C00083D0C0008DC
:1000E0003D0C00083D0C00083D0C00083D0C0008CC
:1000F0003D0C00083D0C00083D0C00083D0C0008BC
:100100003D0C000800000000000000003D0C00084D
:100110003D0C00083D0C00083D0C00083D0C00089B
:100120003D0C00083D0C00083D0C00083D0C00088B
:100130003D0C00083D0C000800000000000000001D
:100140003D0C00083D0C00083D0C000800000000BC
:10015000000000000000000000000000000000009F
:100160003D0C00083D0C00083D0C00083D0C00084B
:100170003D0C00083D0C00083D0C00083D0C00083B
:100180003D0C00083D0C00080000000000000000CD
:040190003D0C00081A
:1001A00010B5054C237833B9044B13B10448AFF3B1
:1001B00000800123237010BD6000002000000000BB
:1001C000E044000808B5034B1BB103490348AFF3F3
:1001D000008008BD0000000064000020E04400082A
:1001E000034613F8012B002AFBD1181A0138704777
:1001F00001F0FF01102A2BDB10F0070F08D010F8D8
:10020000013B013A8B422DD010F0070F42B3F6D1DB
:10021000F0B441EA012141EA014122F007047FF0F4
:1002200000070023F0E80256083C85EA010586EA4B
:10023000010685FA47F5A3FA87F586FA47F6A5FA87
:1002400087F68EB9EED1F0BC01F0FF0102F0070293
:1002500032B110F8013B013A83EA010313B1F8D13E
:100260000020704701387047002D06BF354603381F
:10027000073815F0010F07D1013015F4807F02BF58
:10028000013015F4C03F0130F0BC0138704700BFA9
:1002900080B500AF00F0D4FC00F022F800F002F9C5
:1002A00000F0A0F800F07CF800F0CCF84FF400511A
:1002B000094801F065FA0346002B05D1074800F014
:1002C00057F900F07BF904E0044800F051F900F020
:1002D000BFF90023184680BD00080048F844000814
:1002E00080B5A6B000AF07F17003282200211846A0
:1002F00003F078FC07F15C0300221A605A609A60F0
:10030000DA601A613B1D58220021184603F06AFC8E
:1003100002233B670123FB671023C7F880300223C9
:10032000C7F888304FF40043C7F88C304FF4E0131F
:10033000C7F890300023C7F8943007F170031846CF
:1003400001F04EFA0346002B01D000F0A3F90F2371
:10035000FB6502233B6600237B664FF48063BB662C
:100360000023FB6607F15C030221184602F05CFAE9
:100370000346002B01D000F08DF906237B6000239B
:100380003B6100237B613B1D184602F05FFC034686
:10039000002B01D000F07EF900BF9837BD4680BD2C
:1003A00080B500AF0D4B0E4A1A600C4B00221A713B
:1003B0000A4B00225A71094B00225A61074B002256
:1003C0009A61064B01221A62044800F085FD03463B
:1003D000002B01D000F05EF900BF80BD7C00002042
:1003E0000030024080B500AF144B154A1A60134B21
:1003F0004FF4E1325A60114B00229A600F4B0022F9
:10040000DA600E4B00221A610C4B0C225A610B4B26
:1004100000229A61094B0022DA61084B00221A621D
:10042000064B00225A62054802F02CFE0346002BC0
:1004300001D000F02FF900BF80BD00BFA000002058
:100440000044004080B500AF144B154A1A60134BAE
:100450004FF416425A60114B00229A600F4B002253
:10046000DA600E4B00221A610C4B0C225A610B4BC6
:1004700000229A61094B0022DA61084B00221A62BD
:10048000064B00225A62054802F0FCFD0346002B91
:1004900001D000F0FFF800BF80BD00BF28010020A0
:1004A0000048004080B58AB000AF07F11403002275
:1004B0001A605A609A60DA601A612B4B5B692A4AAB
:1004C00043F400235361284B5B6903F400233B6131
:1004D0003B69254B5B69244A43F480035361224BFB
:1004E0005B6903F48003FB60FB681F4B5B691E4A7A
:1004F00043F4003353611C4B5B6903F40033BB606E
:10050000BB68194B5B69184A43F480235361164B4F
:100510005B6903F480237B607B68002220214FF01D
:10052000904001F045F94FF400537B614FF4041300
:10053000BB610023FB6107F1140319460B4800F06F
:1005400095FF20237B610123BB610023FB61002316
:100550003B6207F1140319464FF0904000F086FF0C
:1005600000BF2837BD4680BD00100240000800488B
:100570000FB480B596B000AF07F164037B6007F15C
:1005800008037A68396E184603F022FB07F1080366
:100590001846FFF725FE03469AB207F108014FF00F
:1005A000FF33054802F0BCFD00BF5837BD46BDE82B
:1005B000804004B0704700BF2801002080B500AF24
:1005C0000A2200211E4803F00DFB4FF0FF330122E9
:1005D0001B491C4802F02DFE194B1B78803B032B56
:1005E00028D801A252F823F0F905000801060008F6
:1005F000170600082D060008114800F051F81DE00C
:100600004FF0FF33052210490E4802F012FE0C484D
:1006100000F06AF812E04FF0FF3305220A4909485A
:1006200002F007FE064800F069F907E0044800F010
:100630008BF803E00548FFF79BFF00BFC0E700BF52
:10064000B0010020A0000020B101002034450008C6
:1006500080B584B000AF0C48FFF78AFF0B4B1B68D6
:10066000FB60FB683B603B6883F3088800BF084B76
:100670001B68BB60BB687B6072B600BF7B68984735
:1006800000BF1037BD4680BD6C45000800800008E3
:100690000480000880B400AF72B600BF00BFFDE761
:1006A00080B584B000AF78600D48FFF761FF00F0BF
:1006B000D9F80346FB7300233B73FB7B7B73FB7B07
:1006C000FA7B19460748FFF753FF07F10C03022195
:1006D000184600F0CFF800BF1037BD4680BD00BF00
:1006E000A0450008CC45000880B588B000AF786010
:1006F00007F110031946786800F0D0F800F04EFDBD
:1007000007F10C0207F110031146184600F00AFE2B
:100710000346FB7700F068FDFB7F002B05D17B686B
:100720001B783B72FB7F7B7204E07B681B783B721B
:10073000FB7F7B7207F108030221184600F09AF84C
:1007400000BF2037BD4680BDB0B5C6B000AF07F5CD
:100750008C73A3F58A73186000F020FD07F58C7385
:10076000A3F58A731B68591C4FF0FF3301223A48E6
:1007700002F05FFD07F58C73A3F58A731B680133E4
:100780001B781A46354B1B889A4208D207F10C0198
:100790004FF0FF334FF480722F4802F04AFD07F10B
:1007A0000C03C7F810310023C7F814312BE02C4B91
:1007B0001968D7F814319B00D7F8102113441B682F
:1007C00000221C46154622462B46022000F076FCED
:1007D000034687F80F3197F80F31002B09D1204BD2
:1007E0001B6804331E4A136097F80F3187F80E31E7
:1007F00004E097F80F3187F80E3108E0D7F814318C
:100800000133C7F81431D7F814313F2BCFD907F192
:100810000C034FF480720021184603F0E3F907F54A
:100820008C73A3F58A731B681B7887F80C3107F566
:100830008C73A3F58A731B685B7887F80D3107F515
:1008400086730321184600F015F800F0CDFC00BFB8
:1008500007F58C77BD46B0BDA0000020C201002086
:10086000C401002080B400AF10231846BD465DF8D7
:10087000047B704780B582B000AF786039603B6818
:100880009AB24FF0FF337968034802F049FC00BF89
:100890000837BD4680BD00BFA000002080B485B0F1
:1008A00000AF786039600023FB600023BB607B6889
:1008B00001331B781A067B6802331B781B041A432A
:1008C0007B6803331B781B0213437A680432127867
:1008D0001343FB607B6805331B78BB603B680022D9
:1008E0001A603B68FA685A603B68BA689A6000BF51
:1008F0001437BD465DF8047B7047000080B584B0B6
:1009000000AF78607B6801331B781A067B6802337E
:100910001B781B041A437B6803331B781B021343A9
:100920007A68043212781343134A13607B680533E4
:100930001B781B029BB27A680632127813439AB274
:100940000E4B1A800D4B1B881B0A9AB20C4B1A8057
:10095000094B1B680B4A13607B681B783B730023B1
:100960007B7307F10C0302211846FFF783FF00BFDA
:100970001037BD4680BD00BFBC010020C001002073
:10098000C2010020C401002080B582B000AF0F4B2F
:100990009B690E4A43F0010393610C4B9B6903F082
:1009A00001037B607B68094BDB69084A43F0805395
:1009B000D361064BDB6903F080533B603B68072043
:1009C00000F056FA00BF0837BD4680BD0010024057
:1009D00080B485B000AF78607B681B680A4A934298
:1009E0000BD10A4B5B69094A43F040035361074B43
:1009F0005B6903F04003FB60FB6800BF1437BD4632
:100A00005DF8047B704700BF0030024000100240D8
:100A100080B58CB000AF786007F11C0300221A602B
:100A20005A609A60DA601A617B681B682F4A9342A9
:100A300029D12F4BDB692E4A43F40033D3612C4B71
:100A4000DB6903F40033BB61BB69294B5B69284A4E
:100A500043F400335361264B5B6903F400337B613D
:100A60007B690C23FB6102233B6200237B62002332
:100A7000BB620723FB6207F11C0319464FF090404D
:100A800000F0F4FC2DE07B681B681A4A934228D1E1
:100A9000174BDB69164A43F48023D361144BDB699F
:100AA00003F480233B613B69114B5B69104A43F4BB
:100AB000002353610E4B5B6903F40023FB60FB686A
:100AC0004FF44063FB6102233B6200237B620323FC
:100AD000BB620723FB6207F11C031946064800F0BE
:100AE000C5FC00BF3037BD4680BD00BF004400409C
:100AF00000100240004800400008004880B400AFE9
:100B000000BFFDE780B400AF00BFFDE780B400AFD9
:100B100000BFFDE780B400AF00BFFDE780B400AFC9
:100B200000BFFDE780B400AF00BFBD465DF8047BA9
:100B3000704780B400AF00BFBD465DF8047B7047CE
:100B400080B400AF00BFBD465DF8047B704780B540
:100B500000AF00F0BBF800BF80BD000080B586B0DC
:100B600000AF7860144A154BD31A7B617B693B61F7
:100B7000134B1B68002B02D1114B124A1A60104B09
:100B80001A687B6813443A699A4207D203F032F834
:100B900003460C221A604FF0FF3309E0084B1B6834
:100BA000FB60074B1A687B681344054A1360FB68B7
:100BB00018461837BD4680BD000001200004000023
:100BC000C80100203803002080B400AF064BD3F8E2
:100BD0008830054A43F47003C2F8883000BFBD4630
:100BE0005DF8047B704700BF00ED00E0DFF834D013
:100BF000FFF7EAFF0C480D490D4A002302E0D458E4
:100C0000C4500433C4188C42F9D30A4A0A4C002356
:100C100001E013600432A242FBD302F0F1FFFFF7C0
:100C200037FBFEE700000120000000205C000020F0
:100C3000684600086000002038030020FEE700003E
:100C400080B500AF084B1B68074A43F010031360E0
:100C5000032000F00DF9002000F008F8FFF794FEE3
:100C60000023184680BD00BF0020024080B582B03E
:100C700000AF7860124B1A68124B1B7819464FF47C
:100C80007A73B3FBF1F3B2FBF3F3184600F017F9F4
:100C90000346002B01D001230EE07B680F2B0AD8FE
:100CA000002279684FF0FF3000F0EDF8064A7B68CB
:100CB0001360002300E0012318460837BD4680BDBD
:100CC00000000020080000200400002080B400AFD5
:100CD000064B1B781A46064B1B681344044A1360E4
:100CE00000BFBD465DF8047B704700BF08000020D0
:100CF000CC01002080B400AF034B1B681846BD46F2
:100D00005DF8047B704700BFCC01002080B485B043
:100D100000AF78607B6803F00703FB600C4BDB6877
:100D2000BB60BA684FF6FF031340BB60FB681A0252
:100D3000BB68134343F0BF6343F40033BB60044A12
:100D4000BB68D36000BF1437BD465DF8047B7047B5
:100D500000ED00E080B400AF044BDB681B0A03F039
:100D600007031846BD465DF8047B704700ED00E0C0
:100D700080B483B000AF03463960FB7197F9073048
:100D8000002B0ADB3B68DAB20C4997F907301201F5
:100D9000D2B20B4483F800230AE03B68DAB2084978
:100DA000FB7903F00F03043B1201D2B20B441A7615
:100DB00000BF0C37BD465DF8047B704700E100E0E2
:100DC00000ED00E080B489B000AFF860B9607A60EF
:100DD000FB6803F00703FB61FB69C3F10703042B06
:100DE00028BF0423BB61FB690433062B02D9FB69CE
:100DF000033B00E000237B614FF0FF32BB6902FA46
:100E000003F3DA43BB681A407B699A404FF0FF3125
:100E10007B6901FA03F3D9437B680B4013431846FF
:100E20002437BD465DF8047B7047000080B582B072
:100E300000AF78607B68013BB3F1807F01D3012371
:100E40000FE00A4A7B68013B53600F214FF0FF30EF
:100E5000FFF78EFF054B00229A60044B07221A60B1
:100E6000002318460837BD4680BD00BF10E000E0F3
:100E700080B582B000AF78607868FFF747FF00BFA9
:100E80000837BD4680BD80B586B000AF0346B96067
:100E90007A60FB7300237B61FFF75CFF78617A68FF
:100EA000B9687869FFF78EFF024697F90F3011464F
:100EB0001846FFF75DFF00BF1837BD4680BD80B5FF
:100EC00082B000AF78607868FFF7B0FF034618463D
:100ED0000837BD4680BD000080B582B000AF7860A5
:100EE0007B68002B01D1012354E07B685B7FDBB280
:100EF000002B05D17B6800221A777868FFF768FD20
:100F00007B6802225A777B681B79002B0CD17B68A7
:100F10001B68224A5A617B681B689A687B681B6859
:100F200022F018029A600CE07B6899687B68DB68A5
:100F30001A46786800F034F80346002B01D00123EC
:100F400028E07B685B79002B05D17B681B684FF03C
:100F5000FF321A6104E07B681B687A6812691A61C3
:100F60007B681B689B6823F060017B685A697B681B
:100F70001B680A439A607B681B689B6823F08001AA
:100F80007B689A697B681B680A439A607B680122C8
:100F90005A77002318460837BD4680BDB71DC104E7
:100FA00080B487B000AFF860B9607A600023FB7549
:100FB0001F233B61BB6803F00103002B02D1012317
:100FC000FB7563E000BF3B695A1E3A61002B09D0F4
:100FD0003B6903F01F03BA6822FA03F303F001032D
:100FE000002BF0D07B68182B46D801A252F823F0D2
:100FF0007F100008791000087910000879100008A7
:10100000791000087910000879100008791000089C
:101010006D10000879100008791000087910000898
:10102000791000087910000879100008791000087C
:101030006110000879100008791000087910000884
:10104000791000087910000879100008791000085C
:10105000551000083B69062B13D90123FB7510E0DE
:101060003B69072B0FD90123FB750CE03B690F2B64
:101070000BD90123FB7508E00123FB7506E000BFD7
:1010800004E000BF02E000BF00E000BFFB7D002BDA
:101090000DD1FB681B68BA685A61FB681B689B68C6
:1010A00023F01801FB681B687A680A439A60FB7D8D
:1010B00018461C37BD465DF8047B7047F0B587B015
:1010C00000AFF860B960C7E900230123FB75002376
:1010D000BB7500237B752F4B1B7E012B01D1022397
:1010E00054E02C4B01221A764CF2503000F0A8F854
:1010F0000346FB75FB7D002B44D1FB68012B02D11D
:1011000001237B7507E0FB68022B02D102237B756C
:1011100001E004237B750023BB752DE0BB7D5A00E5
:10112000BB6802EB030CBB7D1901D7E90023C1F1B9
:101130002006A1F1200022FA01F403FA06F6344356
:1011400023FA00F0044323FA01F5A3B219466046DE
:1011500000F05AF84CF2503000F072F80346FB757C
:101160000D4B1B690C4A23F001031361FB7D002B1F
:1011700007D1BB7D0133BB75BA7D7B7D9A42CDD350
:1011800000E000BF034B00221A76FB7D18461C3797
:10119000BD46F0BDD00100200020024080B483B0E5
:1011A00000AF0023FB710D4B1B6903F08003002B84
:1011B0000DD00A4B0A4A5A60084B0A4A5A60074B3C
:1011C0001B6903F08003002B01D00123FB71FB7925
:1011D00018460C37BD465DF8047B7047002002407E
:1011E00023016745AB89EFCD80B400AF054B1B6988
:1011F000044A43F08003136100231846BD465DF89E
:10120000047B70470020024080B483B000AF786058
:101210000B467B80084B0022DA61084B1B69074AAA
:1012200043F0010313617B687A881A8000BF0C3792
:10123000BD465DF8047B7047D001002000200240CD
:1012400080B584B000AF7860FFF754FDF86010E01F
:101250007B68B3F1FF3F0CD07B68002B07D0FFF712
:1012600049FD0246FB68D31A7A689A4201D20323E9
:101270001FE0124BDB6803F00103012BE8D00F4B9A
:10128000DB6803F02003202B02D10C4B2022DA6014
:101290000A4BDB6803F01003102B05D0074BDB680B
:1012A00003F00403042B03D100F00AF8012300E04B
:1012B000002318461037BD4680BD00BF0020024005
:1012C00080B483B000AF00237B60144BDB6803F075
:1012D0001003102B09D1124BDB6943F00203104AB3
:1012E000D3617B6843F010037B600C4BDB6803F039
:1012F0000403042B09D10A4BDB6943F00103084ABC
:10130000D3617B6843F004037B60044A7B68D3604D
:1013100000BF0C37BD465DF8047B704700200240DB
:10132000D001002080B584B000AF7860396001231F
:10133000FB730023BB602E4B1B7E012B01D10223CC
:1013400052E02B4B01221A767B681B68012B15D1CA
:101350004CF25030FFF774FF0346002B40D100F0F1
:101360004BF84CF25030FFF76BFF0346FB73214BF9
:101370001B69204A23F00403136131E04CF2503022
:10138000FFF75EFF0346002B2AD13B684FF0FF3288
:101390001A607B685B68BB6019E0B86800F046F8CB
:1013A0004CF25030FFF74CFF0346FB73114B1B69A7
:1013B000104A23F002031361FB7B002B03D03B6830
:1013C000BA681A600CE0BB6803F50063BB607B6819
:1013D0009B68DA027B685B681344BA689A42DCD384
:1013E000034B00221A76FB7B18461037BD4680BDA2
:1013F000D00100200020024080B400AF094B002241
:10140000DA61094B1B69084A43F004031361064B78
:101410001B69054A43F04003136100BFBD465DF8F8
:10142000047B7047D00100200020024080B483B0CC
:1014300000AF78600B4B0022DA610B4B1B690A4A44
:1014400043F002031361084A7B685361064B1B6932
:10145000054A43F04003136100BF0C37BD465DF8F9
:10146000047B7047D00100200020024080B487B088
:1014700000AF7860396000237B6160E13B681A68E7
:1014800001217B6901FA03F31340FB60FB68002B29
:1014900000F052813B685B6803F00303012B05D029
:1014A0003B685B6803F00303022B30D17B689B68C9
:1014B0003B617B695B00032202FA03F3DB433A6979
:1014C00013403B613B68DA687B695B0002FA03F317
:1014D0003A6913433B617B683A699A607B685B6851
:1014E0003B6101227B6902FA03F3DB433A69134053
:1014F0003B613B685B681B0903F001027B6902FAF0
:1015000003F33A6913433B617B683A695A603B686D
:101510005B6803F00303032B17D07B68DB683B6138
:101520007B695B00032202FA03F3DB433A69134051
:101530003B613B689A687B695B0002FA03F33A6996
:1015400013433B617B683A69DA603B685B6803F090
:101550000303022B23D17B69DA087B68083253F836
:1015600022303B617B6903F007039B000F2202FAE4
:1015700003F3DB433A6913403B613B681A697B69BB
:1015800003F007039B0002FA03F33A6913433B613C
:101590007B69DA087B680832396943F822107B6876
:1015A0001B683B617B695B00032202FA03F3DB43A8
:1015B0003A6913403B613B685B6803F003027B6957
:1015C0005B0002FA03F33A6913433B617B683A69B3
:1015D0001A603B685B6803F44033002B00F0AC807A
:1015E0005E4B9B695D4A43F0010393615B4B9B69D2
:1015F00003F00103BB60BB68594A7B699B08023357
:1016000052F823303B617B6903F003039B000F22F8
:1016100002FA03F3DB433A6913403B617B68B3F1A1
:10162000904F25D07B684F4A93421FD07B684E4A2B
:10163000934219D07B684D4A934213D07B684C4A41
:1016400093420DD07B684B4A934207D07B684A4A4D
:10165000934201D106230CE007230AE0052308E0AA
:10166000042306E0032304E0022302E0012300E058
:1016700000237A6902F00302920093403A6913430F
:101680003B6137497B699B0802333A6941F8232063
:101690003A4B9B683B61FB68DB433A6913403B6113
:1016A0003B685B6803F48013002B03D03A69FB6846
:1016B00013433B61314A3B699360304BDB683B61CC
:1016C000FB68DB433A6913403B613B685B6803F4AA
:1016D0000013002B03D03A69FB6813433B61274A90
:1016E0003B69D360254B5B683B61FB68DB433A6930
:1016F00013403B613B685B6803F40033002B03D06D
:101700003A69FB6813433B611C4A3B6953601B4BBE
:101710001B683B61FB68DB433A6913403B613B68F4
:101720005B6803F48033002B03D03A69FB681343F2
:101730003B61124A3B6913607B6901337B613B6803
:101740001A687B6922FA03F3002B7FF497AE00BF7F
:1017500000BF1C37BD465DF8047B70470010024097
:10176000000001400004004800080048000C004848
:101770000010004800140048001800480004014010
:1017800080B485B000AF78600B467B807B681A69B7
:101790007B881340002B02D00123FB7301E0002360
:1017A000FB73FB7B18461437BD465DF8047B70471E
:1017B00080B483B000AF78600B467B8013467B70AB
:1017C0007B78002B03D07A887B689A6102E07A8864
:1017D0007B689A6200BF0C37BD465DF8047B70479A
:1017E00080B5ADF5027D00AF07F50273A3F5017377
:1017F000186007F50273A3F501731B68002B02D173
:10180000012301F00AB807F50273A3F501731B6801
:101810001B6803F00103002B00F06181AE4B5B6895
:1018200003F00C03042B0CD0AB4B5B6803F00C03F0
:10183000082B57D1A84B5B6803F4C033B3F5803F46
:1018400050D14FF40033C7F8F431D7F8F43193FA9C
:10185000A3F3C7F8F031D7F8F031B3FA83F3DBB272
:101860003F2B02D89C4B1B6815E04FF40033C7F8A0
:10187000EC31D7F8EC3193FAA3F3C7F8E8314FF421
:101880000033C7F8E431D7F8E43193FAA3F3C7F88B
:10189000E031914B5B6A4FF40032C7F8DC21D7F896
:1018A000DC2192FAA2F2C7F8D821D7F8D821B2FAEF
:1018B00082F2D2B242F02002D2B202F01F02012123
:1018C00001FA02F21340002B00F0088107F50273C1
:1018D000A3F501731B685B68002B40F0FF800123B8
:1018E00000F09BBF07F50273A3F501731B685B68EB
:1018F000B3F5803F06D1784B1B68774A43F48033B9
:10190000136036E007F50273A3F501731B685B688B
:10191000002B0CD1704B1B686F4A23F4803313608B
:101920006D4B1B686C4A23F48023136021E007F59C
:101930000273A3F501731B685B68B3F5A02F0CD18C
:10194000654B1B68644A43F480231360624B1B6839
:10195000614A43F4803313600BE05F4B1B685E4ABF
:1019600023F4803313605C4B1B685B4A23F48023B1
:10197000136007F50273A3F501731B685B68002B06
:1019800054D0FFF7B7F9C7F800020AE0FFF7B2F941
:101990000246D7F80032D31A642B02D9032300F091
:1019A0003CBF4FF40033C7F8D431D7F8D43193FAA1
:1019B000A3F3C7F8D031D7F8D031B3FA83F3DBB251
:1019C0003F2B02D8444B1B6815E04FF40033C7F897
:1019D000CC31D7F8CC3193FAA3F3C7F8C8314FF420
:1019E0000033C7F8C431D7F8C43193FAA3F3C7F86A
:1019F000C031394B5B6A4FF40032C7F8BC21D7F8CD
:101A0000BC2192FAA2F2C7F8B821D7F8B821B2FAED
:101A100082F2D2B242F02002D2B202F01F020121C1
:101A200001FA02F21340002BB0D058E0FFF762F940
:101A3000C7F800020AE0FFF75DF90246D7F8003266
:101A4000D31A642B02D9032300F0E7BE4FF400330E
:101A5000C7F8B431D7F8B43193FAA3F3C7F8B0316B
:101A6000D7F8B031B3FA83F3DBB23F2B02D81A4B6D
:101A70001B6815E04FF40033C7F8AC31D7F8AC3130
:101A800093FAA3F3C7F8A8314FF40033C7F8A43191
:101A9000D7F8A43193FAA3F3C7F8A0310E4B5B6AD1
:101AA0004FF40032C7F89C21D7F89C2192FAA2F299
:101AB000C7F89821D7F89821B2FA82F2D2B242F050
:101AC0002002D2B202F01F02012101FA02F21340F9
:101AD000002BB0D103E000BF0010024000BF07F5AB
:101AE0000273A3F501731B681B6803F00203002B4C
:101AF00000F06D81CD4B5B6803F00C03002B0CD024
:101B0000CA4B5B6803F00C03082B6ED1C74B5B68B4
:101B100003F4C033B3F5004F67D10223C7F8943103
:101B2000D7F8943193FAA3F3C7F89031D7F89031EE
:101B3000B3FA83F3DBB23F2B02D8BC4B1B6813E034
:101B40000223C7F88C31D7F88C3193FAA3F3C7F886
:101B500088310223C7F88431D7F8843193FAA3F38C
:101B6000C7F88031B14B5B6A0222C7F87C21D7F8F5
:101B70007C2192FAA2F2C7F87821D7F87821B2FA3C
:101B800082F2D2B242F02002D2B202F01F02012150
:101B900001FA02F21340002B0AD007F50273A3F5F5
:101BA00001731B68DB68012B02D0012300F035BEF6
:101BB0009E4B1B6823F0F80207F50273A3F501732F
:101BC0001B681B69F821C7F87411D7F8741191FAD2
:101BD000A1F1C7F87011D7F87011B1FA81F1C9B24B
:101BE0008B40924913430B60F1E007F50273A3F5B4
:101BF00001731B68DB68002B00F083800123C7F8AA
:101C00006C31D7F86C3193FAA3F3C7F86831D7F881
:101C10006831B3FA83F3DBB203F1845303F5841321
:101C20009B001A4601231360FFF764F8C7F800020F
:101C30000AE0FFF75FF80246D7F80032D31A022B0A
:101C400002D9032300F0E9BD0223C7F86431D7F8B5
:101C5000643193FAA3F3C7F86031D7F86031B3FA6F
:101C600083F3DBB23F2B02D8704B1B6813E00223D7
:101C7000C7F85C31D7F85C3193FAA3F3C7F8583151
:101C80000223C7F85431D7F8543193FAA3F3C7F8B5
:101C90005031664B5B6A0222C7F84C21D7F84C21C1
:101CA00092FAA2F2C7F84821D7F84821B2FA82F294
:101CB000D2B242F02002D2B202F01F02012101FA98
:101CC00002F21340002BB4D0584B1B6823F0F802EB
:101CD00007F50273A3F501731B681B69F821C7F8A8
:101CE0004411D7F8441191FAA1F1C7F84011D7F87F
:101CF0004011B1FA81F1C9B28B404C4913430B60DA
:101D000065E00123C7F83C31D7F83C3193FAA3F3DF
:101D1000C7F83831D7F83831B3FA83F3DBB203F1BF
:101D2000845303F584139B001A4600231360FEF7C7
:101D3000E1FFC7F800020AE0FEF7DCFF0246D7F831
:101D40000032D31A022B02D9032300F066BD02230E
:101D5000C7F83431D7F8343193FAA3F3C7F83031E8
:101D6000D7F83031B3FA83F3DBB23F2B02D82F4BD5
:101D70001B6813E00223C7F82C31D7F82C3193FAF3
:101D8000A3F3C7F828310223C7F82431D7F8243148
:101D900093FAA3F3C7F82031244B5B6A0222C7F8F9
:101DA0001C21D7F81C2192FAA2F2C7F81821D7F803
:101DB0001821B2FA82F2D2B242F02002D2B202F07C
:101DC0001F02012101FA02F21340002BB4D107F5E2
:101DD0000273A3F501731B681B6803F00803002B53
:101DE00000F0198107F50273A3F501731B685B69A5
:101DF000002B00F082800123C7F81431D7F814318A
:101E000093FAA3F3C7F81031D7F81031B3FA83F37C
:101E1000DBB21A46064B13449B001A46012313609B
:101E2000FEF768FFC7F800020FE000BF0010024095
:101E300020819010FEF75EFF0246D7F80032D31AD9
:101E4000022B02D9032300F0E8BC0223C7F80C31AF
:101E5000D7F80C3193FAA3F207F50273A3F5807358
:101E60001A6007F50273A3F5827302221A6007F560
:101E70000273A3F582731B6893FAA3F207F502734A
:101E8000A3F584731A6007F50273A3F58673022223
:101E90001A6007F50273A3F586731B6893FAA3F221
:101EA00007F50273A3F588731A60B04B5A6A07F5F9
:101EB0000273A3F58A730221196007F50273A3F573
:101EC0008A731B6893FAA3F107F50273A3F58C7369
:101ED000196007F50273A3F58C731B68B3FA83F3DB
:101EE000DBB243F06003DBB203F01F03012101FA10
:101EF00003F31340002B9DD08DE007F50273A3F58B
:101F00008E7301221A6007F50273A3F58E731B68A6
:101F100093FAA3F207F50273A3F590731A6007F51D
:101F20000273A3F590731B68B3FA83F3DBB21A460E
:101F30008F4B13449B001A4600231360FEF7DAFE12
:101F4000C7F800020AE0FEF7D5FE0246D7F80032D5
:101F5000D31A022B02D9032300F05FBC07F50273EA
:101F6000A3F5927302221A6007F50273A3F5927328
:101F70001B6893FAA3F207F50273A3F594731A6032
:101F800007F50273A3F5967302221A6007F5027330
:101F9000A3F596731B6893FAA3F207F50273A3F5F2
:101FA00098731A6007F50273A3F59A7302221A60F8
:101FB00007F50273A3F59A731B6893FAA3F207F56A
:101FC0000273A3F59C731A60684B5A6A07F5027393
:101FD000A3F59E730221196007F50273A3F59E73A2
:101FE0001B6893FAA3F107F50273A3F5A0731960B8
:101FF00007F50273A3F5A0731B68B3FA83F3DBB292
:1020000043F06003DBB203F01F03012101FA03F385
:102010001340002B97D107F50273A3F501731B68DA
:102020001B6803F00403002B00F09C81002387F859
:1020300007324E4BDB6903F08053002B16D14B4B1C
:10204000DB694A4A43F08053D361484BDB6903F0B4
:10205000805207F50273A3F5FE731A6007F5027349
:10206000A3F5FE731B68012387F80732414B1B68F9
:1020700003F48073002B1AD13E4B1B683D4A43F496
:1020800080731360FEF736FEC7F8000209E0FEF722
:1020900031FE0246D7F80032D31A642B01D903234C
:1020A000BBE3344B1B6803F48073002BEFD007F5C0
:1020B0000273A3F501731B689B68012B06D12B4BA0
:1020C0001B6A2A4A43F00103136235E007F50273E5
:1020D000A3F501731B689B68002B0CD1234B1B6A73
:1020E000224A23F001031362204B1B6A1F4A23F08C
:1020F0000403136220E007F50273A3F501731B6864
:102100009B68052B0CD1194B1B6A184A43F004033A
:102110001362164B1B6A154A43F0010313620BE06E
:10212000124B1B6A114A23F0010313620F4B1B6A07
:102130000E4A23F00403136207F50273A3F501733B
:102140001B689B68002B00F08580FEF7D3FDC7F865
:10215000000211E0FEF7CEFD0246D7F80032D31A96
:1021600041F28832934207D9032356E3001002401C
:10217000208190100070004007F50273A3F5A27350
:1021800002221A6007F50273A3F5A2731B6893FA83
:10219000A3F207F50273A3F5A4731A6007F502739F
:1021A000A3F5A67302221A6007F50273A3F5A673BE
:1021B0001B6893FAA3F207F50273A3F5A8731A60DC
:1021C00007F50273A3F5A8731B68B3FA83F3DBB2B8
:1021D00023F05F03DBB2002B02D1984B1B6A13E0A4
:1021E00007F50273A3F5AA7302221A6007F50273BA
:1021F000A3F5AA731B6893FAA3F207F50273A3F57C
:10220000AC731A608D4B5B6A07F50272A2F5AE7271
:102210000221116007F50272A2F5AE72126892FAFD
:10222000A2F107F50272A2F5B072116007F5027211
:10223000A2F5B0721268B2FA82F2D2B242F0400253
:10224000D2B202F01F02012101FA02F21340002B68
:1022500080D07DE0FEF74EFDC7F800020BE0FEF7F0
:1022600049FD0246D7F80032D31A41F28832934230
:1022700001D90323D1E207F50273A3F5B273022259
:102280001A6007F50273A3F5B2731B6893FAA3F201
:1022900007F50273A3F5B4731A6007F50273A3F58B
:1022A000B67302221A6007F50273A3F5B6731B68B2
:1022B00093FAA3F207F50273A3F5B8731A6007F552
:1022C0000273A3F5B8731B68B3FA83F3DBB223F090
:1022D0005F03DBB2002B02D1584B1B6A13E007F5FA
:1022E0000273A3F5BA7302221A6007F50273A3F50D
:1022F000BA731B6893FAA3F207F50273A3F5BC73D4
:102300001A604E4B5B6A07F50272A2F5BE7202219B
:10231000116007F50272A2F5BE72126892FAA2F17C
:1023200007F50272A2F5C072116007F50272A2F5FC
:10233000C0721268B2FA82F2D2B242F04002D2B255
:1023400002F01F02012101FA02F21340002B86D194
:1023500097F80732012B05D1384BDB69374A23F058
:102360008053D36107F50273A3F501731B689B6962
:10237000002B00F05182314B5B6803F00C03082BFB
:1023800000F00F8207F50273A3F501731B689B69C8
:10239000022B40F0658107F50273A3F5C2734FF07D
:1023A00080721A6007F50273A3F5C2731B6893FA73
:1023B000A3F207F50273A3F5C4731A6007F502735D
:1023C000A3F5C4731B68B3FA83F3DBB203F1845340
:1023D00003F584139B001A4600231360FEF78AFC62
:1023E000C7F8000209E0FEF785FC0246D7F8003284
:1023F000D31A022B01D903230FE207F50273A3F5C9
:10240000C6734FF000721A6007F50273A3F5C67326
:102410001B6893FAA3F207F50273A3F5C8731A6059
:1024200007F50273A3F5C8731B68B3FA83F3DBB235
:102430003F2B05D8014B1B682AE000BF001002406B
:1024400007F50273A3F5CA734FF000721A6007F51F
:102450000273A3F5CA731B6893FAA3F207F502731C
:10246000A3F5CC731A6007F50273A3F5CE734FF092
:1024700000721A6007F50273A3F5CE731B6893FA16
:10248000A3F207F50273A3F5D0731A60CA4B5B6A17
:1024900007F50272A2F5D2724FF00071116007F5D4
:1024A0000272A2F5D272126892FAA2F107F50272D4
:1024B000A2F5D472116007F50272A2F5D472126807
:1024C000B2FA82F2D2B242F02002D2B202F01F027D
:1024D000012101FA02F21340002B84D1B64BDB6AD2
:1024E00023F00F0207F50273A3F501731B685B6A03
:1024F000B1491343CB62B04B5B6823F4761207F506
:102500000273A3F501731B68196A07F50273A3F53B
:1025100001731B68DB690B43A74913434B6007F545
:102520000273A3F5D6734FF080721A6007F5027339
:10253000A3F5D6731B6893FAA3F207F50273A3F50C
:10254000D8731A6007F50273A3F5D8731B68B3FA42
:1025500083F3DBB203F1845303F584139B001A4623
:1025600001231360FEF7C6FBC7F8000209E0FEF77F
:10257000C1FB0246D7F80032D31A022B01D903233C
:102580004BE107F50273A3F5DA734FF000721A609E
:1025900007F50273A3F5DA731B6893FAA3F207F544
:1025A0000273A3F5DC731A6007F50273A3F5DC73FD
:1025B0001B68B3FA83F3DBB23F2B02D87E4B1B6858
:1025C00027E007F50273A3F5DE734FF000721A607F
:1025D00007F50273A3F5DE731B6893FAA3F207F500
:1025E0000273A3F5E0731A6007F50273A3F5E273B3
:1025F0004FF000721A6007F50273A3F5E2731B68CF
:1026000093FAA3F207F50273A3F5E4731A606A4B19
:102610005B6A07F50272A2F5E6724FF00071116075
:1026200007F50272A2F5E672126892FAA2F107F5B6
:102630000272A2F5E872116007F50272A2F5E87263
:102640001268B2FA82F2D2B242F02002D2B202F0A2
:102650001F02012101FA02F21340002B87D0DBE0B8
:1026600007F50273A3F5EA734FF080721A6007F55D
:102670000273A3F5EA731B6893FAA3F207F50273DA
:10268000A3F5EC731A6007F50273A3F5EC731B68EE
:10269000B3FA83F3DBB203F1845303F584139B0095
:1026A0001A4600231360FEF725FBC7F8000209E075
:1026B000FEF720FB0246D7F80032D31A022B01D9CD
:1026C0000323AAE007F50273A3F5EE734FF000723F
:1026D0001A6007F50273A3F5EE731B6893FAA3F271
:1026E00007F50273A3F5F0731A6007F50273A3F5FB
:1026F000F0731B68B3FA83F3DBB23F2B02D82E4B87
:102700001B6827E007F50273A3F5F2734FF0007220
:102710001A6007F50273A3F5F2731B6893FAA3F22C
:1027200007F50273A3F5F4731A6007F50273A3F5B6
:10273000F6734FF000721A6007F50273A3F5F67393
:102740001B6893FAA3F207F50273A3F5F8731A60F6
:10275000194B5B6A07F50272A2F5FA724FF000712D
:10276000116007F50272A2F5FA72126892FAA2F1EC
:1027700007F50272A2F5FC72116007F50272A2F56C
:10278000FC721268B2FA82F2D2B242F02002D2B2E5
:1027900002F01F02012101FA02F21340002B87D13F
:1027A0003AE007F50273A3F501731B689B69012BDF
:1027B00004D1012331E000BF00100240194B5B68D7
:1027C000C7F8FC31174BDB6AC7F8F831D7F8FC3192
:1027D00003F4C03207F50273A3F501731B68DB69CC
:1027E0009A4217D1D7F8FC3103F4701207F502733F
:1027F000A3F501731B681B6A9A420BD1D7F8F83115
:1028000003F00F0207F50273A3F501731B685B6AFF
:102810009A4201D0012300E00023184607F5027711
:10282000BD4680BD0010024080B59EB000AF78600C
:10283000396000237B677B68002B01D1012354E1C1
:10284000894B1B6803F007033A689A4210D9864BFC
:102850001B6823F0070284493B6813430B60824BDB
:102860001B6803F007033A689A4201D001233CE158
:102870007B681B6803F00203002B08D07B4B5B686E
:1028800023F0F0027B689B68784913434B607B68B8
:102890001B6803F00103002B00F0CD807B685B68B0
:1028A000012B37D14FF40033FB66FB6E93FAA3F391
:1028B0003B673B6FB3FA83F3DBB23F2B02D86B4B22
:1028C0001B680FE04FF40033BB66BB6E93FAA3F3B3
:1028D0007B664FF400333B663B6E93FAA3F3FB65D4
:1028E000624B5B6A4FF40032BA65BA6D92FAA2F29B
:1028F0007A657A6DB2FA82F2D2B242F02002D2B296
:1029000002F01F02012101FA02F21340002B71D1E3
:102910000123EAE07B685B68022B37D14FF000733C
:102920003B653B6D93FAA3F3FB64FB6CB3FA83F353
:10293000DBB23F2B02D84D4B1B680FE04FF000730A
:10294000BB64BB6C93FAA3F37B644FF000733B64EE
:102950003B6C93FAA3F3FB63444B5B6A4FF000724A
:10296000BA63BA6B92FAA2F27A637A6BB2FA82F223
:10297000D2B242F02002D2B202F01F02012101FACB
:1029800002F21340002B35D10123AEE002233B635A
:102990003B6B93FAA3F3FB62FB6AB3FA83F3DBB2FC
:1029A0003F2B02D8314B1B680DE00223BB62BB6A90
:1029B00093FAA3F37B6202233B623B6A93FAA3F38D
:1029C000FB612A4B5B6A0222BA61BA6992FAA2F2EF
:1029D0007A617A69B2FA82F2D2B242F02002D2B2BD
:1029E00002F01F02012101FA02F21340002B01D173
:1029F00001237AE01D4B5B6823F003027B685B6870
:102A00001A4913434B60FEF775F978670AE0FEF741
:102A100071F902467B6FD31A41F28832934201D991
:102A2000032362E0114B5B6803F00C027B685B6878
:102A30009B009A42EBD10C4B1B6803F007033A68EA
:102A40009A4215D2084B1B6823F0070206493B68DF
:102A500013430B60044B1B6803F007033A689A4268
:102A600006D0012341E000BF0020024000100240D8
:102A70007B681B6803F00403002B08D01D4B5B68C8
:102A800023F4E0627B68DB681A4913434B607B6880
:102A90001B6803F00803002B09D0164B5B6823F476
:102AA00060527B681B69DB00124913434B6000F0E6
:102AB00029F801460F4B5B6803F0F003F0223A61FE
:102AC0003A6992FAA2F2FA60FA68B2FA82F2D2B2E3
:102AD000D340094AD35C21FA03F3084A1360084B38
:102AE0001B681846FEF7C2F8002318467837BD4623
:102AF00080BD00BF00100240EC450008000000202F
:102B00000400002080B487B000AF0023FB600023E6
:102B1000BB6000237B6100237B6000233B611F4B74
:102B20005B68FB60FB6803F00C03042B02D0082BEE
:102B300003D029E01A4B3B6129E0FB689B0C03F0B2
:102B40000F03184AD35C7B60144BDB6A03F00F035E
:102B5000154AD35CBB60FB6803F48033002B08D0BC
:102B60000F4ABB68B2FBF3F27B6802FB03F37B61A5
:102B700007E00B4ABB68B2FBF3F27B6802FB03F38E
:102B80007B617B693B6102E0054B3B6100BF3B69B8
:102B900018461C37BD465DF8047B704700100240A4
:102BA00000127A00044600081446000880B400AF02
:102BB000034B1B681846BD465DF8047B704700BF99
:102BC0000000002080B582B000AFFFF7EFFF0146A4
:102BD0000B4B5B6803F4E0634FF4E0627A607A6861
:102BE00092FAA2F23A603A68B2FA82F2D2B2D340D2
:102BF000044AD35C21FA03F318460837BD4680BD6A
:102C000000100240FC45000880B582B000AFFFF71D
:102C1000CDFF01460B4B5B6803F460534FF46052E9
:102C20007A607A6892FAA2F23A603A68B2FA82F26C
:102C3000D2B2D340044AD35C21FA03F318460837D2
:102C4000BD4680BD00100240FC45000880B592B032
:102C500000AF786000233B640023FB63002387F808
:102C600047307B681B6803F48033002B00F0D28070
:102C70004D4BDB6903F08053002B0ED14A4BDB69CF
:102C8000494A43F08053D361474BDB6903F08053DB
:102C9000BB60BB68012387F84730444B1B6803F4D3
:102CA0008073002B18D1414B1B68404A43F480735A
:102CB0001360FEF71FF8386408E0FEF71BF80246C1
:102CC0003B6CD31A642B01D90323D4E1374B1B6827
:102CD00003F48073002BF0D0334B1B6A03F4407372
:102CE000FB63FB6B002B00F082807B685B6803F466
:102CF0004073FA6B9A427AD02B4B1B6A23F44073D1
:102D0000FB634FF480333B633B6B93FAA3F3FB62AB
:102D1000FB6AB3FA83F3DBB21A46254B13449B00DC
:102D20001A46012313604FF48033BB63BB6B93FAE5
:102D3000A3F37B637B6BB3FA83F3DBB21A461C4BC2
:102D400013449B001A4600231360174AFB6B13625F
:102D5000FB6B03F00103002B49D0FDF7CBFF386478
:102D60000AE0FDF7C7FF02463B6CD31A41F28832F6
:102D7000934201D903237EE10223BB62BB6A93FA2B
:102D8000A3F37B6202233B623B6A93FAA3F3FB61EA
:102D9000FB69B3FA83F3DBB223F05F03DBB2002BF2
:102DA00008D1014B1B6A0DE000100240007000408A
:102DB000008190100223BB61BB6993FAA3F37B618E
:102DC0009A4B5B6A02223A613A6992FAA2F2FA607D
:102DD000FA68B2FA82F2D2B242F04002D2B202F003
:102DE0001F02012101FA02F21340002BB9D08F4BD0
:102DF0001B6A23F440727B685B688C4913430B6247
:102E000097F84730012B05D1884BDB69874A23F0BF
:102E10008053D3617B681B6803F00103002B08D04B
:102E2000824B1B6B23F003027B689B687F49134333
:102E30000B637B681B6803F00203002B08D07B4BFD
:102E40001B6B23F440327B68DB68784913430B63C8
:102E50007B681B6803F00403002B08D0734B1B6BCB
:102E600023F440227B681B69704913430B637B6822
:102E70001B6803F02003002B08D06C4B1B6B23F066
:102E800010027B68DB69694913430B637B681B682D
:102E900003F40033002B08D0644B5B6823F48002FA
:102EA0007B685B6D614913434B607B681B6803F073
:102EB0004003002B08D05D4B1B6B23F020027B6886
:102EC0001B6A5A4913430B637B681B6803F4802316
:102ED000002B08D0554B1B6B23F040027B685B6ACC
:102EE000524913430B637B681B6803F00803002BF4
:102EF00008D04E4B1B6B23F440127B685B694B4937
:102F000013430B637B681B6803F01003002B08D08E
:102F1000464B1B6B23F440027B689B694349134378
:102F20000B637B681B6803F40073002B08D03F4BD6
:102F30005B6823F400027B681B6B3C4913434B60C6
:102F40007B681B6803F08003002B08D0374BDB6ADB
:102F500023F4F8727B689B6A34491343CB627B6825
:102F60001B6803F48073002B08D0304BDB6A23F41A
:102F700078527B68DB6A2D491343CB627B681B6800
:102F800003F48053002B08D0284B1B6B23F4807272
:102F90007B685B6B254913430B637B681B6803F4F9
:102FA0000053002B08D0214B1B6B23F400727B686D
:102FB0001B6C1E4913430B637B681B6803F480136F
:102FC000002B08D0194B1B6B23F080727B689B6B26
:102FD000164913430B637B681B6803F40013002B33
:102FE00008D0124B1B6B23F000727B68DB6B0F4920
:102FF00013430B637B681B6803F48003002B08D02A
:103000000A4B1B6B23F480627B685B6C074913439C
:103010000B637B681B6803F40003002B0CD0034B8D
:103020001B6B23F400627B6802E000BF00100240CB
:103030009B6C134913430B637B681B6803F080731D
:10304000002B08D00E4B1B6B23F400527B68DB6C0B
:103050000B4913430B637B681B6803F00073002B61
:1030600008D0074B1B6B23F400427B681B6D04499F
:1030700013430B63002318464837BD4680BD00BF8D
:103080000010024080B582B000AF78607B68002BF2
:1030900001D1012340E07B68DB6F002B06D17B6808
:1030A000002283F878207868FDF7B2FC7B68242240
:1030B000DA677B681B681A687B681B6822F001026C
:1030C0001A607B685B6A002B02D0786800F04EFBC8
:1030D000786800F077F90346012B01D101231BE04A
:1030E0007B681B685A687B681B6822F490425A60B0
:1030F0007B681B689A687B681B6822F02A029A60CA
:103100007B681B681A687B681B6842F001021A60C2
:10311000786800F0CDFB034618460837BD4680BDF1
:1031200080B58AB002AFF860B9603B601346FB809F
:10313000FB68DB6F202B77D1BB68002B02D0FB88AC
:10314000002B01D1012370E0FB680022C3F884202A
:10315000FB682122DA67FDF7CDFD7861FB68FA880C
:10316000A3F85020FB68FA88A3F85220FB689B68FC
:10317000B3F5805F08D1FB681B69002B04D10023E5
:10318000FB61BB68BB6103E0BB68FB610023BB6103
:103190002FE03B6800937B6900228021F86800F0F3
:1031A0002FFC0346002B04D0FB682022DA670323A0
:1031B0003BE0FB69002B0BD1BB691A88FB681B68DD
:1031C000C2F3080292B21A85BB690233BB6107E001
:1031D000FB691A78FB681B681A85FB690133FB6180
:1031E000FB68B3F852309BB2013B9AB2FB68A3F87C
:1031F0005220FB68B3F852309BB2002BC9D13B6818
:1032000000937B6900224021F86800F0F9FB034637
:10321000002B04D0FB682022DA67032305E0FB685B
:103220002022DA67002300E0022318462037BD463B
:1032300080BD80B58AB002AFF860B9603B601346CC
:10324000FB80FB68D3F88030202B40F0B680BB6851
:10325000002B02D0FB88002B01D10123AEE0FB68DC
:103260000022C3F88420FB682222C3F88020FB6878
:1032700000221A66FDF73EFD7861FB68FA88A3F824
:103280005820FB68FA88A3F85A20FB689B68B3F5BE
:10329000805F0ED1FB681B69002B05D1FB6840F2F3
:1032A000FF12A3F85C202DE0FB68FF22A3F85C204E
:1032B00028E0FB689B68002B0DD1FB681B69002B85
:1032C00004D1FB68FF22A3F85C201BE0FB687F228F
:1032D000A3F85C2016E0FB689B68B3F1805F0DD11A
:1032E000FB681B69002B04D1FB687F22A3F85C20DC
:1032F00008E0FB683F22A3F85C2003E0FB680022A3
:10330000A3F85C20FB68B3F85C307B82FB689B68A9
:10331000B3F5805F08D1FB681B69002B04D1002343
:10332000FB61BB68BB6103E0BB68FB610023BB6161
:1033300037E03B6800937B6900222021F86800F0A9
:103340005FFB0346002B05D0FB682022C3F88020DA
:10335000032333E0FB69002B0CD1FB681B689B8CBB
:103360009AB27B8A13409AB2BB691A80BB69023356
:10337000BB610DE0FB681B689B8C9BB2DAB27B8A59
:10338000DBB21340DAB2FB691A70FB690133FB61EF
:10339000FB68B3F85A309BB2013B9AB2FB68A3F8C2
:1033A0005A20FB68B3F85A309BB2002BC1D1FB689E
:1033B0002022C3F88020002300E002231846203793
:1033C000BD4680BD80B588B000AF78600023BB7774
:1033D0007B689A687B681B691A437B685B691A4340
:1033E0007B68DB6913437B617B681B681A68924BBF
:1033F00013407A68126879690B4313607B681B6815
:103400005B6823F440517B68DA687B681B680A4379
:103410005A607B689B697B617B681B6A7A6913438E
:103420007B617B681B689B6823F430617B681B6849
:103430007A690A439A607B681B68804A934220D16C
:103440007F4B1B6B03F00303032B17D801A252F829
:1034500023F000BF65340008713400087734000899
:103460006B3400080123FB77B5E00223FB77B2E061
:103470000423FB77AFE00823FB77ACE01023FB7756
:10348000A9E07B681B686F4A934224D16C4B1B6B8D
:1034900003F44033B3F5403F11D0B3F5403F17D8A4
:1034A000B3F5003F11D0B3F5003F11D8002B03D086
:1034B000B3F5803F06D00BE00023FB778BE00223BF
:1034C000FB7788E00423FB7785E00823FB7782E025
:1034D0001023FB777FE07B681B685B4A934224D113
:1034E000574B1B6B03F44023B3F5402F11D0B3F5BA
:1034F000402F17D8B3F5002F11D0B3F5002F11D8F6
:10350000002B03D0B3F5802F06D00BE00023FB7710
:1035100061E00223FB775EE00423FB775BE0082396
:10352000FB7758E01023FB7755E07B681B68474A20
:10353000934224D1424B1B6B03F44013B3F5401F5D
:1035400011D0B3F5401F17D8B3F5001F11D0B3F554
:10355000001F11D8002B03D0B3F5801F06D00BE05D
:103560000023FB7737E00223FB7734E00423FB776B
:1035700031E00823FB772EE01023FB772BE07B68FC
:103580001B68334A934224D12D4B1B6B03F4400339
:10359000B3F5400F11D0B3F5400F17D8B3F5000FB6
:1035A00011D0B3F5000F11D8002B03D0B3F5800F65
:1035B00006D00BE00023FB770DE00223FB770AE047
:1035C0000423FB7707E00823FB7704E01023FB7755
:1035D00001E01023FB777B68DB69B3F5004F6BD10B
:1035E000FB7F082B38D801A252F823F011360008CF
:1035F0001936000821360008593600082736000819
:103600005936000859360008593600082F36000888
:10361000FFF7D8FAB86124E0FFF7F6FAB86120E0C6
:103620000C4BBB611DE0FFF76DFAB86119E04FF478
:103630000043BB6115E000BFF369FFEF00380140B4
:10364000001002400044004000480040004C004090
:103650000050004000127A000023BB610123BB77B9
:1036600000BFBB69002B73D0BB695A007B685B68E5
:103670005B081A447B685B68B2FBF3F33B613B6910
:103680000F2B16D93B69B3F5803F12D23B699BB231
:1036900023F00F03FB813B695B089BB203F0070338
:1036A0009AB2FB891343FB817B681B68FA89DA6055
:1036B0004EE00123BB774BE0FB7F082B27D801A20C
:1036C00052F823F0E9360008F1360008F936000810
:1036D0000F370008FF3600080F3700080F370008C3
:1036E0000F37000807370008FFF76CFAB86113E0DE
:1036F000FFF78AFAB8610FE01B4BBB610CE0FFF7E4
:1037000001FAB86108E04FF40043BB6104E0002314
:10371000BB610123BB7700BFBB69002B18D07B685E
:103720005B685A08BB691A447B685B68B2FBF3F3B9
:103730003B613B690F2B09D93B69B3F5803F05D24B
:103740003B699AB27B681B68DA6001E00123BB77B2
:103750007B6800229A667B680022DA66BB7F184687
:103760002037BD4680BD00BF00127A0080B483B010
:1037700000AF78607B685B6A03F00803002B0AD017
:103780007B681B685B6823F400417B685A6B7B682D
:103790001B680A435A607B685B6A03F00103002BD5
:1037A0000AD07B681B685B6823F400317B689A6AE7
:1037B0007B681B680A435A607B685B6A03F00203FC
:1037C000002B0AD07B681B685B6823F480317B6820
:1037D000DA6A7B681B680A435A607B685B6A03F09D
:1037E0000403002B0AD07B681B685B6823F48021EC
:1037F0007B681A6B7B681B680A435A607B685B6A4C
:1038000003F01003002B0AD07B681B689B6823F42D
:1038100080517B689A6B7B681B680A439A607B685F
:103820005B6A03F02003002B0AD07B681B689B684F
:1038300023F400517B68DA6B7B681B680A439A604B
:103840007B685B6A03F04003002B1AD07B681B681F
:103850005B6823F480117B681A6C7B681B680A43E1
:103860005A607B681B6CB3F5801F0AD17B681B68AC
:103870005B6823F4C0017B685A6C7B681B680A4351
:103880005A607B685B6A03F08003002B0AD07B6878
:103890001B685B6823F400217B689A6C7B681B685B
:1038A0000A435A6000BF0C37BD465DF8047B704781
:1038B00080B598B002AF78607B680022C3F884209E
:1038C000FDF718FA78657B681B681B6803F008032E
:1038D000082B2ED16FF07E4300937B6D00224FF4B6
:1038E0000011786800F08CF80346002B21D07B682B
:1038F0001B68BB63BB6B53E8003F7B637B6B23F0B0
:1039000080033B657B681B681A463B6D7B643A64A9
:10391000396C7A6C41E80023FB63FB6B002BE6D12A
:103920007B682022DA677B68002283F878200323F3
:1039300062E07B681B681B6803F00403042B49D119
:103940006FF07E4300937B6D00224FF48001786816
:1039500000F056F80346002B3CD07B681B687B6266
:103960007B6A53E8003F3B623B6A23F49073FB643D
:103970007B681B681A46FB6C3B63FA62F96A3A6B18
:1039800041E80023BB62BB6A002BE6D17B681B6861
:1039900008333B613B6953E8003FFB60FB6823F061
:1039A0000103BB647B681B680833BA6CFA61BB61B6
:1039B000B969FA6941E800237B617B69002BE5D195
:1039C0007B682022C3F880207B68002283F878205F
:1039D000032311E07B682022DA677B682022C3F88A
:1039E00080207B6800221A667B6800225A667B680A
:1039F000002283F87820002318465837BD4680BD42
:103A000080B584B000AFF860B9603B601346FB71CD
:103A10004FE0BB69B3F1FF3F4BD0FDF76BF90246B6
:103A20003B68D31ABA699A4202D3BB69002B01D111
:103A300003234EE0FB681B681B6803F00403002BA4
:103A400037D0BB68802B34D0BB68402B31D0FB68AB
:103A50001B68DB6903F00803082B10D1FB681B68A7
:103A600008221A62F86800F038F8FB680822C3F8E8
:103A70008420FB68002283F87820012329E0FB687A
:103A80001B68DB6903F40063B3F5006F11D1FB68B9
:103A90001B684FF400621A62F86800F01EF8FB68B9
:103AA0002022C3F88420FB68002283F878200323B7
:103AB0000FE0FB681B68DA69BB681340BA689A427A
:103AC0000CBF01230023DBB21A46FB799A42A0D037
:103AD000002318461037BD4680BD80B495B000AFB6
:103AE00078607B681B687B637B6B53E8003F3B63BC
:103AF0003B6B23F49073FB647B681B681A46FB6C7A
:103B00003B64FA63F96B3A6C41E80023BB63BB6B1F
:103B1000002BE6D17B681B6808333B623B6A53E8A5
:103B2000003FFB61FB6923F00103BB647B681B68FA
:103B30000833BA6CFA62BB62B96AFA6A41E80023D8
:103B40007B627B6A002BE5D17B681B6E012B18D151
:103B50007B681B68FB60FB6853E8003FBB60BB6889
:103B600023F010037B647B681B681A467B6CBB6187
:103B70007A617969BA6941E800233B613B69002BAE
:103B8000E6D17B682022C3F880207B6800221A6679
:103B90007B6800229A6600BF5437BD465DF8047BFF
:103BA0007047000010B59AB00024009104916FF0A6
:103BB000004105910291054903916946199400F06D
:103BC00099F9009B1C701AB010BD00BF0802FFFFDE
:103BD00013460A46014602480068FFF7E3BF00BFEC
:103BE0000C00002002440346934200D1704703F8C2
:103BF000011BF9E7014B1868704700BF0C0000205B
:103C000070B50D4D0D4C641BA4100026A64209D1C1
:103C10000B4D0C4C00F064FC641BA4100026A64263
:103C200005D170BD55F8043B98470136EEE755F8CD
:103C3000043B98470136F2E76046000860460008FA
:103C400060460008644600087047704738B505466E
:103C5000002941D051F8043C0C1F002BB8BFE418D8
:103C600000F0E0F81D4A136833B963601460284619
:103C7000BDE8384000F0DCB8A34208D9206821181C
:103C80008B4201BF19685B6809182160EDE71A468D
:103C90005B680BB1A342FAD911685018A0420BD14E
:103CA00020680144501883421160E0D118685B68B5
:103CB000536008441060DAE702D90C232B60D6E782
:103CC000206821188B4204BF19685B68636004BFD9
:103CD000091821605460CAE738BD00BF34030020D2
:103CE00070B50F4E0C463168054611B900F0A4FBC3
:103CF00030602146284600F09FFB431C03D14FF063
:103D0000FF34204670BDC41C24F00304A042F8D048
:103D1000211A284600F090FB0130F2D1EFE700BFF6
:103D2000300300202DE9F843CD1C25F003050835AC
:103D30000C2D38BF0C25002D064601DBA94204D905
:103D40000C2333600020BDE8F883DFF8D48000F056
:103D500069F8D8F800301C4644BB29463046FFF7C6
:103D6000BFFF431C044658D1D8F800402746002F17
:103D700043D1002C4BD023683946304604EB03096D
:103D800000F05AFB814542D121686D1A2946304620
:103D9000FFF7A6FF01303AD023682B442360D8F800
:103DA00000305A6862BBC8F800700FE02268521BEE
:103DB00020D40B2A17D96119A342256018BF596076
:103DC000636808BFC8F8001062514B60304600F0CD
:103DD0002FF804F10B00231D20F00700C21A1CBFAE
:103DE0001B1AA350AFE76268A3420CBFC8F80020BB
:103DF0005A60EBE723466468AEE73C467F68B6E767
:103E00001A465B68A342FBD100235360DEE70C2314
:103E10003360304600F00CF894E70560D6E700BF49
:103E2000340300200148FFF70FBF00BF2C03002020
:103E30000148FFF70ABF00BF2C0300202DE9F0471F
:103E40008E681F46BE420B6882460C4690462DD8AF
:103E5000B1F90C2012F4906F26D06569096905EB61
:103E60004505A3EB010905EBD5757B1C4B446D1093
:103E70009D4238BF1D46530527D52946FFF752FFFF
:103E8000064660B321694A4600F0E6FAA38923F4A6
:103E9000906343F08003A381266165614E44A5EBE6
:103EA00009052660A5603E46BE4200D93E46206810
:103EB0003246414600F0A6FAA3689B1BA360236824
:103EC000334423600020BDE8F0872A4600F0D2FA90
:103ED00006460028E0D121695046FFF7B7FE0C23C3
:103EE000CAF80030A38943F04003A3814FF0FF30AC
:103EF000E9E700002DE9F04F98468B891B069DB03D
:103F000007460D46144610D50B6973B94021FFF7DB
:103F100009FF2860286130B90C233B604FF0FF3067
:103F20001DB0BDE8F08F40236B610023099320236F
:103F30008DF82930CDF80C803023DFF89C818DF886
:103F40002A304FF0010923469A4613F8012B0AB193
:103F5000252AF9D1BAEB040B0BD05B462246294641
:103F60003846FFF76BFF013000F0A780099A5A44EA
:103F700009929AF80030002B00F09F8000234FF048
:103F8000FF32CDE905230AF1010A049307938DF866
:103F900053301A935446052214F8011B4E48FCF77F
:103FA00027F9049AD8B9D00644BF20238DF853309E
:103FB000110744BF2B238DF853309AF800302A2B79
:103FC00015D0079A544600204FF00A0C214611F8EC
:103FD000013B303B092B4BD9B0B1079214E0A0EB69
:103FE000080309FA03F313430493A246D2E7039BA1
:103FF000191D1B680391002BBBBF5B4242F00202FC
:1040000007930793B8BF049223782E2B0AD16378C5
:104010002A2B32D1039B1A1D1B68039243EAE373D8
:1040200002340593DFF8C0A0217803225046FCF744
:10403000DFF838B1049BA0EB0A0040228240134312
:104040000134049314F8011B24488DF8281006222B
:10405000FCF7CEF8002836D0214B1BBB039B07335F
:1040600023F0070308330393099B334409936AE75A
:104070000CFB02320C460120A8E700230134059313
:1040800019464FF00A0C204610F8012B303A092A45
:1040900003D9002BC6D00591C4E70CFB01210446CF
:1040A0000123F0E703AB00932A460E4B04A93846E0
:1040B000AFF30080421C0646D6D1AB895B063FF5C4
:1040C0002DAF09982CE703AB00932A46054B04A9B2
:1040D000384600F079F8EDE7244600082E4600083F
:1040E000000000003D3E00082A4600082DE9F04788
:1040F000164698468A680B69DDF820909342B8BF4F
:104100001346336091F8432007460C460AB1013349
:1041100033602368990642BF3368023333602568F1
:1041200015F0060506D104F1190AE36832689B1AF6
:10413000AB4226DC94F843302268003B18BF0123D1
:1041400092062BD404F1430241463846C847013059
:104150001ED02368226903F00603042B02BFE56822
:104160003368ED1AA3680CBF25EAE5750025934274
:10417000C4BF9B1AED1800261A34B5421AD100208C
:1041800008E00123524641463846C847013003D172
:104190004FF0FF30BDE8F0870135C6E7E1185A1C43
:1041A000302081F84300224494F8451082F84310EF
:1041B0000233C7E70123224641463846C84701304B
:1041C000E6D00136D9E700002DE9FF470F7E0C9EAF
:1041D000782F914680460C469A4601F1430207D853
:1041E000622F0AD8002F00F0D180582F00F0B8803D
:1041F00004F1420684F842703AE0A7F16303152BFC
:10420000F6D801A151F823F0614200087542000878
:10421000F1410008F1410008F1410008F1410008B6
:1042200075420008F1410008F1410008F141000821
:10423000F1410008734300089F4200082D43000825
:10424000F1410008F141000895430008F1410008E0
:104250009F420008F1410008F14100083543000881
:1042600033681A1D1B68326004F1420684F842303C
:1042700001239CE033682068191D3160060601D5D2
:104280001D6803E04506FBD5B3F90050002D03DAA5
:104290002D236D4284F8433058480A2311E02168E9
:1042A0003368080653F8045B02D4490648BFADB230
:1042B0006F2F5248336014BF0A230823002184F86B
:1042C00043106668A660002E05DB21682E4321F0AE
:1042D000040121604BD01646B5FBF3F103FB1157E7
:1042E000C75D06F8017D2F46BB420D46F4D9082B69
:1042F0000BD12368DF0708D5236961689942DEBFC7
:10430000302306F8013C06F1FF36921B2261CDF8FE
:1043100000A04B4603AA21464046FFF7E7FE0130C6
:104320004AD14FF0FF3004B0BDE8F087236843F076
:10433000200323603248782784F845702368316869
:104340001F0651F8045B02D45F0648BFADB231606E
:10435000D90744BF43F0200323601DB11023ADE70C
:104360002648E9E7236823F020032360F6E7164692
:10437000BDE7336825686169181D30602E061B682B
:1043800001D5196002E06806FBD51980002323617E
:104390001646BCE733681A1D32601E686268002149
:1043A0003046FBF725FF08B1801B6060636823611E
:1043B000002384F84330AAE7236932464946404641
:1043C000D0470130ADD023689B0713D4E068039B2E
:1043D0009842B8BF1846A6E70123324649464046F0
:1043E000D04701309DD00135E36803995B1AAB4299
:1043F000F2DCEBE7002504F11906F5E73546000885
:1044000046460008884210B501EB020402D98442F6
:10441000234607D8431EA14208D011F8012B03F808
:10442000012FF8E7024401468A4200D110BD13F87B
:10443000014D02F8014DF7E738B5064D002304465B
:1044400008462B60FCF78AFB431C02D12B6803B1A2
:10445000236038BD280300200A44914200F1FF3355
:1044600000D1704710B511F8014B03F8014F91428C
:10447000F9D110BD2DE9F041074614460D4621B98A
:10448000BDE8F0411146FFF74DBC2AB9FFF7DEFB4E
:1044900025462846BDE8F08100F01AF88442064619
:1044A00002D8B4EB500FF4D821463846FFF73AFC57
:1044B000804608B94546ECE7B4422246294628BF63
:1044C0003246FFF7C9FF29463846FFF7BFFBF1E741
:1044D00051F8043C181F002BBCBF0B58C018704784
:1044E000F8B500BFF8BC08BC9E467047F8B500BFE1
:0844F000F8BC08BC9E467047B1
:1044F800424C5F44454255475F4D5347203A20425E
:104508007574746F6E206973207072657373656457
:104518002C207374617920696E20426F6F746C6F00
:1045280061646572204D6F64650A0D00424C5F44FA
:10453800454255475F4D53473A496E76616C696409
:1045480020636F6D6D616E6420636F6465207265B2
:104558006365697665642066726F6D20686F737431
:10456800200A00004442475F4D5347203A205275C5
:104578006E6E696E67206A756D7020746F20617049
:10458800706C69636174696F6E2066756E637469B7
:104598006F6E0D0A00000000424C5F4445425547CB
:1045A8005F4D53473A626F6F746C6F616465725FF9
:1045B80068616E646C655F6765747665725F636D6C
:1045C800640A0000424C5F44454255475F4D5347DB
:1045D8003A424C5F564552203A20256420252378DC
:1045E8000A000000000000000000000001020304AF
:1045F800060708090000000001020304020304057D
:10460800060708090A0B0C0D0E0F1010010203040F
:1046180005060708090A0B0C0D0E0F10232D302B69
:104628002000686C4C0065666745464700303132AB
:104638003334353637383941424344454600303102
:104648003233343536373839616263646566000061
:0846580088BBFF7F0100000098
:04466000C501000888
:04466400A1010008A8
:1046680000127A0010000000010000001000002075
:1046780000000000F001002058020020C0020020C5
:104688000000000000000000000000000000000022
:104698000000000000000000000000000000000012
:1046A8000000000000000000000000000000000002
:0C46B800000000000000000000000000F6
:0400000508000BEDF7
:00000001FF
